:100000000C9449000C9432110C949C110C94C8105F
:100010000C94DF0F0C94FD100C9467110C947F105E
:100020000C944A100C9468000C9468000C94B71B54
:100030000C94181B0C94101E0C94D1110C94BA1D26
:100040000C94A50F0C9440140C9468000C94680058
:100050000C9468000C9468000C9468000C94680080
:100060000C9414100C9468000C9468000C946800B4
:100070000C9468000C9468000C9468000C94680060
:100080000C9468000C9468000C94680000081C181C
:10009000141011241FBECFEFD0E1DEBFCDBF11E0A1
:1000A000A0E0B1E0E0EBF0E400E00BBF02C007909D
:1000B0000D92AC30B107D9F71AE0ACE0B1E001C065
:1000C0001D92A635B107E1F70E94A3190C945720A1
:1000D0000C9400008FB7F894992708958FBF089566
:1000E000282F9FB7F894662349F0E82FFF27E05E9A
:1000F000F94F8081882311F021E006C0E22FFF270D
:10010000E05EF94F608320E0892F99278FBF822F0F
:1001100099270895E82F8FB7F894282F332790E078
:10012000FF27E05EF94F8081861709F491E02FBF29
:10013000892F99270895882311F06E9A08956E9853
:100140000895882311F06F9A08956F98089580E0BC
:100150000E949B00BA9ABB98B99A6C9A80E00E9460
:10016000A100709A6B986A98689881E00E949B0041
:1001700008950F931F93CF93DF93182F8FB7F894A1
:10018000C82FDD270C2F61E080E00E9470008823DB
:1001900021F0CFBF85E090E024C080910501882345
:1001A000A1F480911401823081F409C082E080932F
:1001B0001401109205010E94A700B89AC0981093EC
:1001C000020180E00FBF99270CC0809114018823A1
:1001D00069F38FB7F8949927109220068FBF81E0BA
:1001E000F1CFDF91CF911F910F910895282F9FB7E5
:1001F000F894E82FFF27EF58FE4F80818F3F91F44E
:1002000080913407821781F40DC02093ED0606C05B
:10021000E0913407FF27EF58FE4F208320933407E7
:1002200020E007C025E005C08091ED068F3F81F7F3
:10023000ECCF892F99278FBF822F992708951F937D
:10024000182F81E00E949B001FB9779BFECF8FB1D2
:1002500099271F9108958F929F92AF92BF92CF924C
:10026000DF92EF92FF920F931F93CF93DF938FB79D
:10027000F8949927C0902C07D0902D078090E8041F
:100280009090E904C091D204D091D304209121012F
:10029000309122019AE0A92EB12CAC0EBD1E2A1578
:1002A0003B0508F459018FBF7401EC0EFD1E860159
:1002B0000C0F1D1F14C0C114D10419F0F801808166
:1002C00001C080E00E941F018114910411F0F70128
:1002D000808321960894E11CF11C0F5F1F4FC5011C
:1002E0000197C817D90738F381E00E94A1009FB792
:1002F000F894C114D10431F0CC0EDD1EF6018081DA
:100300008FB901C01FB8D093D304C093D204892FF2
:1003100099278FBF80E090E0DF91CF911F910F91DF
:10032000FF90EF90DF90CF90BF90AF909F908F9015
:1003300008952FB7F8943327509322014093210159
:1003400090932D0780932C077093E9046093E80441
:100350001092D3041092D2042FBF452B29F08FB1F5
:100360000E942B01992708958BE00E94F60080E0FF
:1003700090E008958FB7F8949927109222068FBFC6
:100380000895CF93DF93EC01DB01FA01411551058C
:1003900019F481E090E00CC08D919C9111979183AC
:1003A00080834D935C938A818F5F8A8380E090E0A5
:1003B000DF91CF910895FC010190F081E02D9F0124
:1003C00011C08281861781F0D90107C08D919C915F
:1003D0001197AE17BF0729F0DC011097B9F780E03D
:1003E00090E0FC01309769F7CF010895EF92FF92FA
:1003F0000F931F93CF93DF93182F7B01042F8FB799
:10040000F894C82FDD2760E080E00E948A008823EE
:1004100021F0CFBF80E090E014C0CFBF1064812FE7
:1004200099279093C5048093C4040E941F01182F3C
:10043000402F5527B70180E090E00E949901812F5D
:100440009927DF91CF911F910F91FF90EF90089521
:1004500080E880936F0110928C011092F106109247
:10046000EC06109286010895CF93DF93FC0115A648
:10047000DC019E96ED011B821A82198280E886A714
:10048000DF91CF9108952F923F924F925F926F929A
:100490007F928F929F92AF92BF92CF92DF92EF9214
:1004A000FF920F931F93CF93DF93CDB7DEB72897BB
:1004B0000FB6F894DEBF0FBECDBF209092013090F2
:1004C00093014090940150909501662477248824EC
:1004D0004EE4A42E33E8B32ECC24DD24EE24FF24F6
:1004E00000E010E0222D332D442D552D662D772D63
:1004F000882D90E00E94461E29833A834B835C83BB
:100500006D837E838F839887822E932EA42EB52EA3
:100510002401350100E20E94441FA22EB32EC42EF6
:10052000D52EC301B20196958795779567956A0D8B
:100530007B1D8C1D9D1D97FF05C09F776F5F7F4FB3
:100540008F4F9F4F6093920170939301809394011A
:100550009093950128960FB6F894DEBF0FBECDBFDD
:10056000DF91CF911F910F91FF90EF90DF90CF908F
:10057000BF90AF909F908F907F906F905F904F90C3
:100580003F902F9008958FB7F8946091D4047091A4
:10059000D5042CB53DB506B602FE04C06F5F7F4F93
:1005A0002CB53DB599278FBF88279927CB01772791
:1005B000662744275527622B732B842B952B089590
:1005C000EF92FF920F931F930E94C3027B018C0155
:1005D0002091BC043091BD044091BE045091BF04F1
:1005E0008091970190919801A0919901B0919A0101
:1005F000820F931FA41FB51FE216F3060407150709
:1006000030F082179307A407B50758F005C082178A
:100610009307A407B507E0F5E816F9060A071B07D4
:10062000B8F59C01AD012E193F09400B510B21304B
:1006300060E8360760E0460760E0560768F180E052
:1006400090E8A0E0B0E0E80EF91E0A1F1B1FE09240
:10065000BC04F092BD040093BE041093BF0480E07C
:1006600090E8AFEFBFEFE80EF91E0A1F1B1F2050E6
:100670003048404050402093970130939801409378
:10068000990150939A0120E030E840E050E014C016
:1006900020E030E040E050E08093BC049093BD0443
:1006A000A093BE04B093BF041092970110929801DA
:1006B0001092990110929A01A901B7012CB53DB58C
:1006C000C9018E199F0903968417950720F0B90177
:1006D0006D5F7F4F02C0640F751F6115710511F4C6
:1006E00061E070E0615070407BBD6ABD80E186BF13
:1006F00087B7806187BF1F910F91FF90EF9008959A
:100700000F931F930FB7F89411276093BC04709355
:10071000BD048093BE049093BF042093970130934F
:1007200098014093990150939A010E94E0020FBFF3
:100730001F910F91089597B79F7D97BF90E296BF45
:10074000882319F08EB5806402C08EB58F7B8EBD74
:1007500087B7806287BF80E090E008957FB7F89404
:1007600062B72091240130912501409126015091DA
:10077000270106B601FE0FC081B792B7280F311DC1
:10078000411D511D2F5F3F4F4F4F5F4F290F311DAF
:10079000411D511D04C0260F311D411D511D872FC4
:1007A00099278FBFCA01B9010895DF92EF92FF9296
:1007B0000F931F938FB7F894282F3327D22E91B71A
:1007C00082B746B7981711F041FF02C02FBF6AC029
:1007D0008091D1048823E1F10E94AE03E0901A06D3
:1007E000F0901B0600911C0610911D0620916B01D4
:1007F00030916C0140916D0150916E016E197F092D
:10080000800B910B621773078407950720F01092F5
:10081000D10471E01EC02E0D3F1D401F511F80915D
:10082000240190912501A0912601B0912701281B58
:10083000390B4A0B5B0B273E31054105510540F44E
:10084000822F223010F070E005C070E082E002C01C
:1008500070E086EE682F615000B601FCFDCF82B7D4
:10086000681709F46F5F20912401309125014091B0
:10087000260150912701DA01C9010196A11DB11D80
:10088000860F911DA11DB11D82179307A407B507FF
:1008900010F4622F609561BFDFBE772319F080E00E
:1008A0000E94F6001F910F91FF90EF90DF90089546
:1008B000AFB7F894BB27E1E0E093D10460931A0648
:1008C00070931B0680931C0690931D0620936B016A
:1008D00030936C0140936D0150936E01AFBF0E9445
:1008E000D503089510922A061092290681E080937C
:1008F0002B0610922D0610922C068AEB94E0909312
:100900002F0680932E06109230061092310686E54F
:100910009CE0909338068093370610923A06109226
:10092000390610923C0610923B0680E090E0089554
:10093000FC018281681718F0E0E0F0E00BC0019044
:10094000F081E02D309721F405C00190F081E02D79
:100950006150D8F7CF0108950F931F93CF93DF9382
:10096000EC018B01FB01118210826A818A8186175A
:1009700070F0662319F4A801BE0106C06150CE01D3
:100980000E949804A801BC01CE010E94C101DF9120
:10099000CF911F910F9108958091CE0490E088230C
:1009A00009F491E0992309F451C0E091CF04F0914A
:1009B000D0048781823009F449C087B799278370B2
:1009C0009070892B19F4E5E0F0E013C080B7992707
:1009D00087709070892BD1F781B792B7891B8C30C3
:1009E00030F082B7853F18F4E3E0F0E002C0E2E0C7
:1009F000F0E087B7887BC1F480917D008B7FA1F404
:100A00006E9912C08AB190919A00892B807C61F412
:100A10008091740082FD08C0379B03C081E090E0A4
:100A200005C085E090E002C080E090E025B78E1719
:100A300008F4E82FFF27E457FF4FE491237E20625C
:100A4000E22BE5BF78948895F894A6CF0895CF93CC
:100A5000DF93EC01662351F4888199810097C9F0F6
:100A6000FC0180819181998388830DC061500E942F
:100A70009804DC01892B69F0ED91FC91119780813C
:100A800091818D939C93118210828A8181508A83F7
:100A900002C0E0E0F0E0CF01DF91CF910895E09156
:100AA000CF04F091D0048781823029F4F0931F069F
:100AB000E0931E061AC080911706909118060097C1
:100AC00049F090931F0680931E061092180610920C
:100AD00017060BC06091CE0461508CEC94E00E942C
:100AE000270590931F0680931E06E0911E06F09145
:100AF0001F0681E087830895802DE0918206F091A2
:100B00008306858B812DE0918206F0918306868B8A
:100B1000822DE0918206F0918306878B832DE091F0
:100B20008206F0918306808F842DE0918206F091F9
:100B30008306818F852DE0918206F0918306828F56
:100B4000862DE0918206F0918306838F872DE091B8
:100B50008206F0918306848F882DE0918206F091C1
:100B60008306858F892DE0918206F0918306868F1A
:100B70008A2DE0918206F0918306878F8B2DE0917C
:100B80008206F091830680A38C2DE0918206F0917D
:100B9000830681A38D2DE0918206F091830682A3C6
:100BA0008E2DE0918206F091830683A38F2DE09134
:100BB0008206F091830684A3802FE0918206F09153
:100BC000830685A3812FE0918206F091830686A398
:100BD000822FE0918206F091830687A3832FE09114
:100BE0008206F091830680A7842FE0918206F0911F
:100BF000830681A7852FE0918206F091830682A764
:100C0000862FE0918206F091830683A7872FE091DB
:100C10008206F091830684A7882FE0918206F091E6
:100C2000830685A7892FE0918206F091830686A727
:100C30008A2FE0918206F091830687A78B2FE0919F
:100C40008206F091830680AB8C2FE0918206F091B2
:100C5000830681AB8D2FE0918206F091830682ABF3
:100C60008E2FE0918206F091830683AB8F2FE09167
:100C70008206F091830684AB8FB7E0918206F091F3
:100C80008306848B8DB79EB7E0918206F091830630
:100C900096838583E0911E06F0911F0685819681DB
:100CA0009EBF8DBF84898FBF8589082E8689182EA7
:100CB0008789282E808D382E818D482E828D582E42
:100CC000838D682E848D782E858D882E868D982E26
:100CD000878DA82E80A1B82E81A1C82E82A1D82EE2
:100CE00083A1E82E84A1F82E85A1082F86A1182FB4
:100CF00087A1282F80A5382F81A5482F82A5582F9E
:100D000083A5682F84A5782F85A5882F86A5982F81
:100D100087A5A82F80A9B82F81A9C82F82A9D82F6D
:100D200083A9E82F84A9F82F0895909383068093D0
:100D300082060E944F0520911E0630911F06809169
:100D40008206909183062817390711F00E947C05CE
:100D500008950F931F93E0911E06F0911F0687815F
:100D6000813019F081E090E00DC083E0878300912D
:100D70001E0610911F060E94CC04C8010E94950611
:100D800080E090E01F910F910895CF93DF93EC01E5
:100D9000E881F981309709F1E617F70751F4DF018F
:100DA000808191819983888311C08617970731F0DC
:100DB000FC01808191810097C1F70FC0309769F0E5
:100DC000DC018D919C9111979183808311961C92E7
:100DD0001E928A8181508A8302C0A0E0B0E0CD01DA
:100DE000DF91CF910895109229011092280110925D
:100DF0002A0110922C0110922B0183E59AE0909326
:100E00002E0180932D0110922F011092300182EA61
:100E10009FE0909337018093360110923901109230
:100E2000380110923B0110923A0180E090E0089561
:100E3000E0911E06F0911F06858196819EBF8DBFB1
:100E400084898FBF8589082E8689182E8789282E48
:100E5000808D382E818D482E828D582E838D682E60
:100E6000848D782E858D882E868D982E878DA82E40
:100E700080A1B82E81A1C82E82A1D82E83A1E82EF0
:100E800084A1F82E85A1082F86A1182F87A1282FCD
:100E900080A5382F81A5482F82A5582F83A5682FBC
:100EA00084A5782F85A5882F86A5982F87A5A82F9C
:100EB00080A9B82F81A9C82F82A9D82F83A9E82F8C
:100EC00084A9F82F0895C09860911F0170912001A6
:100ED00041E08FE30E94F60108950895DF92EF92BA
:100EE000FF920F931F93D82E7A018B010E94AE03BD
:100EF00029E0D29EF0011124E651FB4F60837183FB
:100F000082839383E482F5820683178380858360DE
:100F1000808782E00E94F6001F910F91FF90EF9072
:100F2000DF900895CF93DF93EC01EF81F885019076
:100F3000F081E02D4081518162817381EB81FC81E0
:100F400082810E946E07DF91CF910895CF93DF9346
:100F5000EC01EF81F8850190F081E02D4081518115
:100F600062817381EB81FC8182810E946E07DF9137
:100F7000CF9108950F931F93182F0FB7F89461E046
:100F800080E00E947000882371F510930201809127
:100F900005018823A9F580911401823089F58AE042
:100FA0000CC00E94A70080911401882349F481E0BD
:100FB0008093140110928A018CE00E94F6002AC0EE
:100FC00080919B018F3F31F5E0910401EE2311F1F7
:100FD0001CC01092030104C0FF27E556FE4F10828B
:100FE0001092040117C081E090E002C0880F991FA1
:100FF0001A95E2F720911301282B209313010AC0C0
:10100000809114018823E1F6CCCF809103018F3FBA
:1010100019F7DFCF802F99278FBF80E090E01F91D5
:101020000F91089582E090E0909381018093800178
:1010300081E080938C0120E030E0809102018430D7
:1010400011F421E030E0232B29F484E00E94B90060
:10105000882319F40E946307089584E00E94BA0768
:1010600008951F9383E00E94B9009927182F8823C1
:1010700019F083E00E94BA07812F99271F910895E4
:10108000813029F0813048F0813221F0F9CF89E2B6
:1010900096E0089586EF96E0089588E291E008953D
:1010A0001F931FB7F894813029F0813048F08132C6
:1010B00051F403C029E236E009C026EF36E006C04D
:1010C00028E231E003C00E9440089C01812F99274B
:1010D0008FBFC9011F9108951F93182F813029F0E8
:1010E000813048F0813251F403C0E9E2F6E009C0F2
:1010F000E6EFF6E006C0E8E2F1E003C00E94400837
:10110000FC018781833019F081E090E024C082E007
:1011100087838091CF049091D004E817F907C9F034
:10112000113029F0113048F0113251F403C049E276
:1011300056E00AC046EF56E007C048E251E004C05E
:10114000812F0E944008AC016CEC74E0CB010E943E
:10115000C10180E090E01F9108951F93CF93DF932A
:101160001FB7F89470930D0160930C01FB0142834B
:10117000C0910C01D0910D01E0911E06F0911F0667
:10118000FC83EB83738B628B38872F83009741F04E
:101190009E838D8383E00E94F60081E20E946C08AA
:1011A0000E94A906212F33272FBF9927DF91CF91C6
:1011B0001F910895CF93DF93CDB7DEB72F970FB66A
:1011C000F894DEBF0FBECDBF6C877D878E879F876B
:1011D000CE010C969A8389839E012F5F3F4F4FEF7C
:1011E000BE016D5F7F4F86EA97E00E94AD0880E008
:1011F00090E02F960FB6F894DEBF0FBECDBFDF9103
:10120000CF910895982FE0911D01F0911E01309724
:1012100089F08281891771F40780F085E02D45837C
:10122000E0911D01F0911E010380F481E02D828187
:101230000E946C08089581E20E946C088823B1F432
:10124000E0911E06F0911F068281813279F087813C
:10125000813061F4F0931806E093170684E08783E9
:1012600080911E0690911F060E9495060895FF9298
:101270000F931F93CF93DF93CDB7DEB768970FB669
:10128000F894DEBF0FBECDBF80910E018F5F8093BB
:101290000E01809390060091000110910101FFB6AC
:1012A000F894E0911E06F0911F06809113068823A2
:1012B00039F481E08093130680858F5F808708C0B2
:1012C000AF0164E176E0CB010E94C1010E94A90652
:1012D0008F2D99278FBF80911D0190911E01892B21
:1012E00009F5BE01605F7F4F70931E0160931D0181
:1012F0001B861A86012B21F481E090E09B878A8768
:1013000084E896E09D878C871E869E01265F3F4F6E
:1013100040E988EE9EE00E94AD0810921E011092F6
:101320001D0102C085E08F871FB7F89480911306D6
:101330008130B9F4E0911E06F0911F06808581503E
:10134000808760911606615084E196E00E9427052F
:10135000FC01892B21F082810E946C0802C010924E
:101360001306812F99278FBF88E893E1A0E0B0E0B2
:1013700089839A83AB83BC838FB7F894082F112796
:10138000F02E80911B01813039F060E98EE297E008
:101390000E94DB01892B11F00FBF76CF8E01005F19
:1013A0001F4FB8018EE297E00E94AC04FFBE84E8B4
:1013B00096E098878F83CE0101969E838D83FFB63A
:1013C000F89485E0898789819A81AB81BC819E01EF
:1013D0002B5F3F4F0097A105B10529F040E9B80107
:1013E00082E997E004C040E9B80180E090E00E9403
:1013F000AD088F2D99278FBF0FB7F8941127BE0125
:10140000605F7F4F8EE297E00E94C50689850FBF1F
:10141000882309F039CF8091900680FF04C0DA98C4
:10142000D998D89803C0DA9AD99AD89A68EE73E016
:1014300080E090E00E94DA0827CF8FB7F8949927D0
:1014400000911E0610911F068FBF7894E801EE856B
:10145000FF85888999890995CFB6F894F801178294
:101460008091F00681508093F006AA24BB24EE24DC
:10147000FF24E8018985882329F4E8E0F0E0EE0EF6
:10148000FF1E16C0E701DD24F801818580FF03C03F
:101490008C2F0E946C08F8018185869581872196A2
:1014A000D394F8E0DF1681F788E090E0E80EF91EAB
:1014B0000894A11CB11C0F5F1F4F95E0A916B10441
:1014C000C1F60E94CC040E944F050E9418078C2D83
:1014D00099278FBF9F92AF92BF92CF92DF92EF92E8
:1014E000FF920F931F93CF93DF935B016C01C0E0DA
:1014F000D0E0EAEEF4E09C2E608561FF5FC02081C1
:10150000318142815381E480F58006811781D601C3
:10151000C501821B930BA40BB50B8E159F05A0076D
:10152000B10708F44BC060FF03C06D7F608708C03F
:101530002E0D3F1D401F511F208331834283538353
:10154000892D0E945008EC01EA89FB890780F0850B
:10155000E02D8481853051F481E08483EA89FB8920
:101560000380F481E02D82810E946C08892D0E9405
:101570005008EC01EA89FB890780F085E02D848121
:10158000853051F481E08483EA89FB890380F4810A
:10159000E02D82810E946C08892D0E945008EC0188
:1015A000EA89FB8985819681865A974069F4038090
:1015B000F481E02D82810E946C0806C02196399644
:1015C000C132D10509F097CF82E00E94F600DF9189
:1015D000CF911F910F91FF90EF90DF90CF90BF9030
:1015E000AF909F900895AF92BF92CF92DF92EF920B
:1015F000FF920F931F935B016C016091DE0461FF0A
:101600001FC02091D6043091D7044091D804509146
:10161000D904E090DA04F090DB040091DC0410912E
:10162000DD04D601C501821B930BA40BB50B8E15EF
:101630009F05A007B10720F0E6EDF4E090E020C0A0
:10164000EFEDF4E06091E70461FF2EC02091DF042C
:101650003091E0044091E1045091E204E090E30411
:10166000F090E4040091E5041091E604A21AB30A94
:10167000C40AD50AAE14BF04C006D106A8F091E092
:1016800060FF04C080858D7F808708C02E0D3F1DC0
:10169000401F511F2083318342835383992321F4B8
:1016A0000E94AE030E946A0A81E00E94F6001F9128
:1016B0000F91FF90EF90DF90CF90BF90AF90089583
:1016C0000F931F93182F8FB7F894082F113009F438
:1016D0009AC0113008F48CC0113209F47CC07093A8
:1016E00011006093100010920800109201001092F7
:1016F0000000112319F0113059F404C00E94F306C0
:10170000482F0CC00E947204482FA9E2B6E00EC018
:10171000113018F0113229F468C041E0A8E2B1E0BC
:1017200005C0812F0E944008DC0141E0FD011782C5
:10173000E0911E06F0911F0683819481FD01948340
:101740008383199685E0FD0111928A95E9F719972F
:101750002DB73EB7FD01858196819EBF8DBF8DE17E
:101760009AE08F939F938DB79EB7FD0196838583F3
:101770003EBF2DBF8FB7FD01848B442309F04EC0BF
:10178000113029F0113048F0113251F403C0E9E270
:10179000F6E00AC0E6EFF6E007C0E8E2F1E004C0D8
:1017A000812F0E944008FC018781882319F081E085
:1017B00090E00FC08091F0068F5F8093F00682E08A
:1017C0008783AF016CEC74E0CB010E94C10180E023
:1017D00090E00FBF26C07093070760930607109232
:1017E000FE061092F7061092F606A6EFB6E09DCF21
:1017F00070933901609338011092300110922901E1
:10180000109228017BCF70933A06609339061092AC
:10181000310610922A061092290674CF0FBF81E07C
:1018200090E01F910F910895EF92FF920F931F93F5
:10183000CF93DF93CDB7DEB72A970FB6F894DEBF0C
:101840000FBECDBF8FB7F894082F112760E083EF4C
:1018500096E00E94DB01892BE1F462E0E62EF12C98
:10186000EC0EFD1EB70183EF96E00E94AC040FBFA3
:101870009E012F5F3F4F40E0B70189E69DE10E9446
:10188000AD080FB7F8941127B70183EF96E00E94D7
:10189000C5060FBF60E070E080E00E94600B68EE5C
:1018A00073E080E090E00E94DA08F9CF0E94140C07
:1018B0000895CF92DF92EF92FF920F931F93CF93F1
:1018C000DF938C01F62E6A01E22E8FB7F894C82FB1
:1018D000DD2760E080E00E948A00882321F0CFBFEE
:1018E00080E090E01EC0CFBF0F0D111D802F8068DB
:1018F0000E941F01F82E16950795802F807C0E946C
:101900001F010E2D0AC0EE2DFF27E01BF109EC0D83
:10191000FD1D80810E941F0101500023A1F78F2D22
:101920009927DF91CF911F910F91FF90EF90DF905A
:10193000CF900895CF93DF93CDB7DEB724970FB63E
:10194000F894DEBF0FBECDBF8FB7F89499272091D2
:101950008D0130918E012983232F33272A832091F3
:10196000C0043091C1042B83232F33272C838FBFD6
:1019700024E0AE014F5F5F4F60E088E691E00E9497
:10198000590C24960FB6F894DEBF0FBECDBFDF9181
:10199000CF9108951F9380911301882309F04BC0C4
:1019A000109102011F3F09F046C060E00E948A00CA
:1019B000882309F440C081E080932706809170015C
:1019C0008823E1F11092270685E090E045C092302F
:1019D00069F5C09A8091030120E030E08F3F11F457
:1019E00021E030E0232BE9F4109305018F3F19F437
:1019F0002FEF30E00DC0282F3327F901E556FE4FB9
:101A00008081809303018F3F11F4109304011083B0
:101A100020938A0181E0809314018CE00E94F600FB
:101A200005C0109305011092140111C0809114019A
:101A3000882369F00FC081E090E00EC0809105011D
:101A400090911401882319F2923021F0EFCF80E0B9
:101A50000E949B0080E090E01F9108951F93CF9318
:101A6000DF939FB7F894C92FDD271C2F90910201B7
:101A7000981721F0CFBF81E090E03AC08FEF8093BC
:101A80000201309113013323F1F48FB7F8949927B1
:101A9000109220068FBF0E94CA0CCFBF11C02093A6
:101AA000020181E090E002C0880F991F4A95E2F799
:101AB00080953823309313018AE00E94F6001FBFFF
:101AC00080E090E015C080E065E0E32FFF270E94F2
:101AD000C71F292F492F5527CF01042E02C09595E6
:101AE00087950A94E2F780FDDACF822F8F5FEFCFE0
:101AF000DF91CF911F9108951F93CF93DF938FB7FD
:101B0000F894C82FDD271C2F8091800190918101CE
:101B1000892B29F484E00E942E0DCFBF1EC01092A5
:101B20008C0180918601882311F0B79904C00E9929
:101B300008C0882319F08150809386010E94120802
:101B40000BC081E090E0909381018093800110921E
:101B5000860184E00E942E0D1FBFDF91CF911F915F
:101B60000895FF920F931F93CF93DF93F82E8B016D
:101B70008FB7F894C82FDD2760E080E00E948A00CC
:101B8000882321F0CFBF80E090E00CC0CFBF8F2D25
:101B90000E941F01812F99270E941F01802F0E9400
:101BA0001F019927DF91CF911F910F91FF90089509
:101BB0001F931FB7F89480918501882319F460E082
:101BC00070E009C060E080912B07882309F461E090
:101BD00081E06827772780918F01882319F480E0BE
:101BE00090E00AC090E080912506882309F491E0F6
:101BF00081E09827892F9927762F6627770F770F0F
:101C0000770FB4E0880F991FBA95E1F7826E926260
:101C1000682B792B81E10E94B10D812F99278FBF0D
:101C20001F9108958FB7F8949927609126068FBF6A
:101C300085E0689FB0011124625D7E4F706488E189
:101C40000E94B10D0895EF92FF921F93CF93DF93FF
:101C5000E0909001F0909101F70182A59927182F4B
:101C6000882309F41FE1C09880918401811749F00D
:101C7000612F77276F717070606E706885E10E94C8
:101C8000B10D10938401F70110818FB7F894C82F1C
:101C9000DD2760E080E00E948A00882311F0CFBF3A
:101CA00012C0CFBF8EE390E09093C5048093C4042C
:101CB0008EE30E941F011150412F552760E070E014
:101CC000C7010E949901DF91CF911F91FF90EF9082
:101CD0000895FF920F931F93CF93DF93EC01F62E9D
:101CE00061E082E00E947000882319F085E090E0B6
:101CF00069C0809128068F5F8093280681508B836E
:101D00008FB7F894082F112762E081E00E948A00C3
:101D1000882329F40FBF0E94BA0181E052C08FB717
:101D2000F894992724E0209321068FBFD093CB0409
:101D3000C093CA040FBF8DE0F80EFE01F1928981B5
:101D40009927807290708983118289819927816493
:101D500098688983892F992781831CA618A619A6BC
:101D600019AA18AA1FA680E88EA761E0609324062E
:101D70004091CA045091CB048FB7F894282F332791
:101D800080911501909116018830910511F001970D
:101D900011F02FBF15C082E090E090931601809360
:101DA00015016093550A5093910140939001109250
:101DB00023012FBF0E943108882311F40E94230EB3
:101DC00080E09927DF91CF911F910F91FF900895A7
:101DD000EF92FF920F931F93CF93DF938C01EC014F
:101DE000EF80F884F70164810280F381E02DD70150
:101DF0008D919C912A816D3108F056C0238786838E
:101E0000892F992787832FB7F894332780918D01E5
:101E100090918E012FBF8483892F992785832FB7B7
:101E2000F894332780910601909107012FBF808796
:101E3000892F9927818780910901882361F0109269
:101E400009018FE38287CF010E94690E9927282F0D
:101E50008823A9F417C0862F99279093C9048093EB
:101E6000C804F0931A01E09319018EE00E94F60075
:101E700080910901882349F489E090E00AC08FEF3E
:101E800080930901822F992704C01092960180E067
:101E900090E0E7018D83882359F0E801EB81FC8114
:101EA00082810E946C0804C082E0F7018583F5CF2F
:101EB000DF91CF911F910F91FF90EF9008951F93A5
:101EC000CF93DF93182F8FB7F894C82FDD2760E0EA
:101ED00080E00E948A00882321F0CFBF80E090E05C
:101EE00005C0CFBF812F0E941F019927DF91CF919D
:101EF0001F9108950E942802C09AC09888E00E940D
:101F00005F0F88E00E945F0FC09A84E00E942E0D50
:101F10000E947C0D08951F93182F81E090E090930C
:101F2000160180931501109270010E94CA0C8FB7A0
:101F3000F894992710930F018FBF86E00E94F60056
:101F40001F9108950E94370908951F920F920FB6AE
:101F50000F9211241F932F933F934F935F936F938F
:101F60007F938F939F93AF93BF93EF93FF9383B729
:101F700083BF00B600FCFDCF1FB7F8948091ED063B
:101F800020E030E08F3F11F021E030E0213011F40B
:101F90000E941B09812F99278FBFFF91EF91BF915D
:101FA000AF919F918F917F916F915F914F913F91F1
:101FB0002F911F910F900FBE0F901F9018951F9299
:101FC0000F920FB60F9211241F932F933F934F93AD
:101FD0005F936F937F938F939F93AF93BF93EF9391
:101FE000FF931FB7F8948091ED0620E030E08F3F1B
:101FF00011F021E030E0213011F40E941B09812F03
:1020000099278FBFFF91EF91BF91AF919F918F91D2
:102010007F916F915F914F913F912F911F910F9001
:102020000FBE0F901F90189578941F920F920FB6C5
:102030000F9211241F932F933F934F935F936F93AE
:102040007F938F939F93AF93BF93EF93FF931FB7AC
:10205000F8948091ED0620E030E08F3F11F021E010
:1020600030E0213011F40E941B09812F99278FBF86
:10207000FF91EF91BF91AF919F918F917F916F9160
:102080005F914F913F912F911F910F900FBE0F9035
:102090001F9018951F920F920FB60F9211241F9345
:1020A0002F933F934F935F936F937F938F939F9360
:1020B000AF93BF93EF93FF931FB7F8948091ED0612
:1020C00020E030E08F3F11F021E030E0213011F4CA
:1020D0000E941B09812F99278FBFFF91EF91BF911C
:1020E000AF919F918F917F916F915F914F913F91B0
:1020F0002F911F910F900FBE0F901F9018951F9258
:102100000F920FB60F9211241F932F933F934F936B
:102110005F936F937F938F939F93AF93BF93EF934F
:10212000FF938091800190918101019749F482E0B1
:1021300090E090938101809380010E94120805C075
:10214000809186018F5F809386011FB7F8948091FC
:10215000ED0620E030E08F3F11F021E030E021304B
:1021600011F40E941B09812F99278FBFFF91EF91D6
:10217000BF91AF919F918F917F916F915F914F919F
:102180003F912F911F910F900FBE0F901F901895A8
:102190001F920F920FB60F9211241F932F933F930C
:1021A0004F935F936F937F938F939F93AF93BF935F
:1021B000EF93FF931FB7F8948091ED0620E030E095
:1021C0008F3F11F021E030E0213011F40E941B0913
:1021D000812F99278FBFFF91EF91BF91AF919F9171
:1021E0008F917F916F915F914F913F912F911F91AF
:1021F0000F900FBE0F901F9018951F920F920FB661
:102200000F9211241F932F933F934F935F936F93DC
:102210007F938F939F93AF93BF93EF93FF931FB7DA
:10222000F8948091ED0620E030E08F3F11F021E03E
:1022300030E0213011F40E941B09812F99278FBFB4
:10224000FF91EF91BF91AF919F918F917F916F918E
:102250005F914F913F912F911F910F900FBE0F9063
:102260001F9018951F920F920FB60F9211241F9373
:102270002F933F934F935F936F937F938F939F938E
:10228000AF93BF93EF93FF931FB7F8948091ED0640
:1022900020E030E08F3F11F021E030E0213011F4F8
:1022A0000E941B09812F99278FBFFF91EF91BF914A
:1022B000AF919F918F917F916F915F914F913F91DE
:1022C0002F911F910F900FBE0F901F9018951F9286
:1022D0000F920FB60F9211241F932F933F934F939A
:1022E0005F936F937F938F939F93AF93BF93EF937E
:1022F000FF931FB7F8948091ED0620E030E08F3F08
:1023000011F021E030E0213011F40E941B09812FEF
:1023100099278FBFFF91EF91BF91AF919F918F91BF
:102320007F916F915F914F913F912F911F910F90EE
:102330000FBE0F901F9018951F920F920FB60F921D
:1023400011241F932F933F934F935F936F937F932A
:102350008F939F93AF93BF93EF93FF931FB7F8941F
:102360008091ED0620E030E08F3F11F021E030E079
:10237000213011F40E941B09812F99278FBFFF91F3
:10238000EF91BF91AF919F918F917F916F915F91ED
:102390004F913F912F911F910F900FBE0F901F9063
:1023A000189578941F920F920FB60F9211241F93D5
:1023B0002F933F934F935F936F937F938F939F934D
:1023C000AF93BF93EF93FF938FB7F8949927209122
:1023D000D4043091D5042F5F3F4F3093D504209320
:1023E000D4048FBF1FB7F8948091ED0620E030E051
:1023F0008F3F11F021E030E0213011F40E941B09E1
:10240000812F99278FBFFF91EF91BF91AF919F913E
:102410008F917F916F915F914F913F912F911F917C
:102420000F900FBE0F901F901895CF92DF92EF92F2
:10243000FF920F931F93CFB6F894DD240E944302BE
:10244000DC01CB0166E470E00E94D31FEBE0EE2ECE
:10245000F12CE80EF91EF0923207E09231070E944B
:10246000C30200271127A80197010E948003CFBE55
:102470001F910F91FF90EF90DF90CF9008951F93E1
:10248000CF93DF938FB7F894C82FDD271C2F80914F
:102490001501909116010897C9F489E00E945F0F19
:1024A00083E00E942E0DC09A81E090E09093160187
:1024B000809315018FB7F894992723E020930F019B
:1024C0008FBF86E00E94F600CFBF30C0C0988091D9
:1024D000550A882311F085E001C084E00E945F0F57
:1024E00083FD09C080E00E945F0F83FF04C085E088
:1024F00090E020E003C083E090E021E0909316019B
:1025000080931501C09A1FBF222341F0109223012E
:1025100083E00E942E0D0E94151208C00E94C30283
:1025200020E431E040E050E00E948003DF91CF9151
:102530001F910895EF92FF920F931F93CF93DF9314
:102540008B018091C4049091C50486FF40C18F7BAC
:102550008F3309F08EC1C0911F01D09120015881A5
:102560005093820180918001909181018530910585
:1025700009F443C08630910509F48AC0029709F036
:102580001FC185E090E0909381018093800140918C
:102590006F01852F99270196242F33272817390794
:1025A0004CF1B79906C00E9904C0451B41504093A9
:1025B0006F01409182014A32E8F44423A1F0BE0148
:1025C0006F5F7F4F483018F047E050E007C086E06B
:1025D00090E09093810180938001552780E090E006
:1025E0000E94990146C110928C01C09A84E00E9419
:1025F0002E0DE3C00E947A0F3CC186E090E09093DC
:1026000081018093800180918F01882309F439C072
:10261000809125068823A9F5898185FF32C08F81A5
:102620004E812FB7F89433276091C0047091C10494
:102630002FBF9927982F88275527842B952B8617EE
:10264000970759F08F812E819927982F8827332754
:10265000822B932B8F5F9F4FA1F4898187708130EC
:1026600081F4C09AC0988AE00E945F0FC09AC09817
:102670004091820147502896BE018FE30E94F601E7
:10268000F8C040918201475055272896BE01A6CF39
:10269000C09A80918601882339F484E00E942E0D2F
:1026A00080918601882311F0B7990AC00E9B08C05B
:1026B0009091EC06992321F0809182018B3038F4BF
:1026C00080911F01909120010E9434023DC0913001
:1026D00001F5E091F106FF27EE0FFF1FEE0FFF1F40
:1026E000EE59F94F2081318142815381E0911F01E0
:1026F000F091200121ABBB27A52F942F832F80AB16
:10270000CA01AA27BB2787A7252F33274427552788
:1027100026A78091F1069927019668E070E00E9453
:10272000E71F8093F1068091EC0681508093EC06C0
:10273000882351F080911F01909120010E94340262
:102740001092F1061092EC0680918201FE01E80FD2
:10275000F11D808187FF31C0012B79F1698167709C
:10276000E0911F01F0912001623019F5A0919001D4
:10277000B0919101109709F1809115019091160186
:102780000797D9F4ED019B8183819817B1F487B73E
:102790008F7E87BF908181E08CA7E90FF11D829128
:1027A000319688A780818F7789A780E00E948B0F60
:1027B00004C0613011F48DE02AC00E947C0D59C024
:1027C00010928C01C09A84E00E942E0D52C08E336C
:1027D00009F04FC0C09A8091150190911601089799
:1027E000C9F4C09889E00E945F0FC09A83E00E94FC
:1027F0002E0D81E090E090931601809315018FB724
:10280000F894992723E020930F018FBF86E00E9460
:10281000F6002FC08091550A882349F484E090E0A7
:1028200090931601809315010E943F1222C083E00D
:102830000E942E0D83E090E0909316018093150185
:102840000E944302DC01CB0166E371E00E94D31FCA
:10285000FBE0EF2EF12CE80EF91EF0926A01E092F7
:1028600069010E94C30200271127A80197010E9455
:102870008003DF91CF911F910F91FF90EF9008950A
:102880001F920F920FB60F9211241F932F933F9315
:102890004F935F936F937F938F939F93AF93BF9368
:1028A000EF93FF932FB1E091E804F091E9043097A2
:1028B00039F08091D2049091D304E80FF91F20835E
:1028C0008091D2049091D30401969093D304809385
:1028D000D20480E00E94A100409121015091220188
:1028E0008091D2049091D3048417950718F40E9424
:1028F0002B011CC06091E8047091E90480912C07C1
:1029000090912D071092E9041092E80410922D077F
:1029100010922C0710922201109221011092D304E0
:102920001092D2042FB120E00E949A121FB7F8949F
:102930008091ED0620E030E08F3F11F021E030E0A3
:10294000213011F40E941B09812F99278FBFFF911D
:10295000EF91BF91AF919F918F917F916F915F9117
:102960004F913F912F911F910F900FBE0F901F908D
:102970001895AF92BF92CF92DF92EF92FF920F9392
:102980001F93CF93DF93873009F4F5C1883098F413
:10299000833009F438C1843038F4813009F454C0EC
:1029A000823008F0D4C01DC0853009F481C1863062
:1029B00008F093C132C18B3009F4F0C28C3038F486
:1029C000893009F4FAC18A3008F032C2EFC18D3083
:1029D00009F41CC38D3008F405C38E3009F082C49D
:1029E00051C480918301882361F520915E06309166
:1029F0005F064091600650916106EFB7F894FF279B
:102A000060911A0670911B0680911C0690911D061C
:102A1000E0906B01F0906C0100916D0110916E01DE
:102A20006E0D7F1D801F911FEFBF20935E063093B8
:102A30005F064093600650936106109283010E94E6
:102A400058040E94AE036EC00E94AE035B016C018D
:102A50008FB7F89499271092D1048FBF8091DE042C
:102A600081FF25C08091D6049091D704A091D8040D
:102A7000B091D904A6019501281B390B4A0B5B0BB9
:102A8000E090DA04F090DB040091DC041091DD04A6
:102A9000E21AF30A040B150B3FEFE3163FEFF306C0
:102AA0003FEF03073FE7130711F061E009C0AFEF05
:102AB000EA2EAFEFFA2EAFEF0A2FAFE71A2F60E042
:102AC0008091E70481FF24C08091DF049091E004AD
:102AD000A091E104B091E204A6019501281B390BF5
:102AE0004A0B5B0BDA01C9012091E3043091E40445
:102AF0004091E5045091E604281B390B4A0B5B0B0F
:102B00002E153F05400751071CF479018A0103C0C7
:102B1000662309F4E7C31E141F04100611062CF0E7
:102B2000C601B5010E94F30ADDC3E0925E06F09291
:102B30005F06009360061093610681E08093830135
:102B4000A8019701C601B5010E945804CBC30E9499
:102B5000AE037B018C018091DE048D7F8093DE04C7
:102B6000FFEFAF2EFFEFBF2EFFEFCF2EFFE7DF2EE1
:102B700060E0EAEEF4E0808581FF1CC080819181F5
:102B8000A281B381A8019701281B390B4A0B5B0B6B
:102B9000DA01C9012481358146815781281B390B0F
:102BA0004A0B5B0B2A153B054C055D051CF45901CE
:102BB0006A0161E0399636E0E331F307E1F6662316
:102BC00009F490C31A141B041C041D042CF0C80142
:102BD000B7010E946A0A86C3E092D604F092D70435
:102BE0000093D8041093D904A092DA04B092DB04C5
:102BF000C092DC04D092DD048091DE048360809377
:102C0000DE0481E012C1E0910C01F0910D012581FB
:102C10003681CF01F901099565C30FB7F8941127E3
:102C200081E00E949B03E1E0EE2EF12CF092160170
:102C3000E092150110921701109270011092840118
:102C40000FBF0FB7F89411270E942802F09281015C
:102C5000E092800110928C0189B78F7B89BF80E45C
:102C600088BF8AB780628ABF8AB78F7E8ABF89B7DA
:102C7000806489BF0FBF8FB7F894C82FDD2780917C
:102C8000100190911101049719F483E00E945F0FE5
:102C9000CFBF0FB7F8941127C09A80E00E942E0D85
:102CA0000FBF8FB7F894992722E02093210605C023
:102CB0008FB7F8949927109221068FBF60E083EFB9
:102CC00096E00E94DB01EC01EF81F8851082EB8138
:102CD000FC8182810E946C0805C38FB7F894992704
:102CE000F0900F018FBF63E081E00E948A0088238B
:102CF00059F10FB7F894112710921601109215018F
:102D000087B78F7E87BF87B78F7D87BF83E00E949D
:102D10002E0DC09A0FBF0FB7F894112710928101A2
:102D2000109280010E942802C09A89B78F7B89BFC8
:102D30000FBF1092110110921001DE98DD98DE9AFB
:102D400085E00E94F60007C08FB7F894992722E02B
:102D5000209321068FBFC091CA04D091CB040E945A
:102D6000BA018A858F3309F0BDC28FEF80930901C4
:102D70004F2DBE01A7C28FB7F894282F3327122FEB
:102D800080913307882309F581E080933307809190
:102D9000100190911101049721F481E00E94BA077B
:102DA00003C088E00E94F6001FBF9CC28FB7F89452
:102DB0009927109233078FBF95C28FB7F894282FA9
:102DC000332780911201882311F02FBF8BC22FBFB0
:102DD00080B3992776E0969587957A95E1F7182F35
:102DE00011709091C2048091C3048917D9F019170A
:102DF000C9F484E090E090931101809310018FB7A3
:102E0000F894992721E0209312018FBF60E070E0D1
:102E10008DE10E94B10D0E949A0CC09AC09884E086
:102E20000E94F6001093C30489E00E94F6005AC283
:102E30008FB7F8949927109102018FBF123009F4CF
:102E400060C0133030F4112359F0113009F04AC238
:102E500043C0133009F46FC0143009F043C29BC063
:102E6000C0988FB7F894C82FDD27809110019091FA
:102E70001101029779F583E090E09093110180931E
:102E8000100168E170E08DE10E94B10D81E0809356
:102E9000C2041092120180B3992766E09695879537
:102EA0006A95E1F7817090708093C30489E00E9475
:102EB000F60081E00E945F0F6FE772E08CE10E94F4
:102EC000B10D0E94120E0E94D80D66E57AE287E1EC
:102ED0000E94B10DCFBF06C2C09886E00E945F0F6E
:102EE0000E94120E0E94D80D0E949A0CC09AC0989F
:102EF00083E00E945F0FC09A81E00E942E0D88E05F
:102F000094CFC0988FB7F894C82FDD2760E080E099
:102F10000E948A00882311F0CFBF0AC0CFBF83E58B
:102F20000E941F0180E00E941F0180E00E941F019B
:102F3000C09A82E02DC08FB7F8949927209115018F
:102F40008FBF243039F0283041F0223001F50E9443
:102F5000230EC8C10E943F12C5C1C09889E00E94DB
:102F60005F0FC09A83E00E942E0D8FB7F8949927C7
:102F700021E030E030931601209315018FBF8FB709
:102F8000F894992710930F018FBF86E04ECF83E00E
:102F90000E942E0DA7C10E946307A4C10FB7F89429
:102FA000112740912101509122016091E804709114
:102FB000E90480912C0790912D071092E90410925A
:102FC000E80410922D0710922C0710922201109203
:102FD00021011092D3041092D20420E00E949A1290
:102FE0000FBF80C12FB7F894332780918A01809357
:102FF000050182E0809314012FBF80910501882391
:1030000009F070C1B89AC0988AE00FCFA0911F0153
:10301000B09120011C91FD01E10FF11D8081881FFD
:103020008827881FED018BA780818F7789A731972B
:10303000808188A7E0911F01F09120018FB7F8945B
:103040009927209185018FBF2223F9F0878146813E
:103050002FB7F89433276091C0047091C1042FBF3B
:103060009927982F88275527842B952B8617970704
:1030700061F0878126819927982F88273327822B13
:10308000932B8F5F9F4F09F0F4C01D3008F4F1C0FF
:1030900000911F0110912001E80189852885992759
:1030A000582F44273327422B532B6B818FEF80936C
:1030B000F2068FB7F894782F20E030E0EDE5F1E0EC
:1030C000808191818417950731F48281861709F4F4
:1030D00097C02093F2062F5F3F4F3396243031057F
:1030E00079F77FBF9091F2063FB7F8949F3F21F0A8
:1030F00080911801891799F420911801822F99273E
:10310000FC01EE0FFF1FE80FF91FE35AFE4F51833A
:10311000408362832F5F2370209318010CC0892F96
:103120009927FC01EE0FFF1FE80FF91FE35AFE4F2E
:10313000518340836283832F99278FBFF80183A532
:10314000882309F492C082858F3309F08EC087816D
:1031500046812FB7F89433276091060170910701DB
:103160002FBF9927982F88275527842B952B8617B3
:10317000970769F0E8018F812E819927982F88277A
:103180003327822B932B8F5F9F4F09F0A3C0E80159
:103190006B8580911B01813011F46FEF01C077279F
:1031A0008EE297E00E94DB01DC01009709F45DC02C
:1031B000FC01C781D0858C81853009F056C08381A0
:1031C0009481FC0182819927FC0173E0EE0FFF1FBF
:1031D0007A95E1F7E80FF91FEE50FB4F80818D7F64
:1031E00080838A819B81A80124E3FA010190AF01C9
:1031F000FC010192CF012150C1F730C06FEF03C035
:103200007FBF33C0772787E891E00E94DB01DC01B4
:10321000009759F1FC01C781D0858C81853029F553
:1032200083819481FC0182819927FC0163E0EE0F88
:10323000FF1F6A95E1F7E80FF91FEE50FB4F808101
:103240008D7F80838A819B81A80124E3FA0101900C
:10325000AF01FC010192CF012150C1F71C82ED01A9
:10326000EB81FC8182810E946C0810932001009305
:103270001F018FB7F894992710928C018FBF0E947D
:103280007C0D30C09091960180910901981751F101
:10329000909309019923D1F4C0911901D0911A0199
:1032A0006091C8048FE38A87CE010E94690E482F7F
:1032B00055274423B9F08FEF8093090160911901DC
:1032C00070911A018B850E9402090CC08FEF8093C8
:1032D000090108C0F801638580911C01813009F063
:1032E00091CF8CCFDF91CF911F910F91FF90EF90F5
:1032F000DF90CF90BF90AF9008958091ED068F3F03
:10330000F9F09091ED06E091ED06FF27EF58FE4FA2
:1033100080818093ED068091ED068F3F11F48093BC
:103320003407292F3327F901EF58FE4F8FEF8083A1
:103330002F3F31F0822F0E94B91481E090E0089570
:1033400080E090E008950F931F93CF93DF938FB7A2
:10335000F8941092F00626EF36E03093D0042093D4
:10336000CF0481E28093F8061092CD041092CC0431
:103370001092CE0430931F0620931E0611E0109386
:10338000FD061092FA061092F90610921806109295
:1033900017060FB7F8944FE050E06FEF70E081E749
:1033A00091E00E9450208FEF8093ED0680933407C8
:1033B0001EBD88E080BF83E083BF8CB59DB54AE722
:1033C0002CB53DB52817390708F44150442311F0B6
:1033D000C901F6CF92B782B78917E9F32CB53DB58D
:1033E00092B782B78917E9F38CB59DB5821B930B11
:1033F0004096B5E096958795BA95E1F79093EF06DC
:103400008093EE0613BE83B78EBD8EB580BF12BE0D
:103410001DBC1CBC8FEF86BF86B780937C0080B735
:10342000992787709070892BD1F7D29AD19AD09A28
:10343000DA9AD99AD89A15BA8FEF84BBD498DC98C7
:103440001DBC1CBC87B7846087BF8EB5887F846035
:103450008EBD80E285BF0E947D198823E1F70E941E
:103460007204182F0E94F306181709F0A6C01092D4
:1034700013061092150610921406109216061123C8
:1034800009F4A4C0BCC0EDE5F1E02FEF3FEF3183BC
:1034900020831282339641E0E936F407C1F7C8EB86
:1034A000D6E00E944302609328068091000190912B
:1034B00001010196AA27BB27809392019093930163
:1034C000A0939401B0939501D0932001C0931F0164
:1034D0008E98B89A8C988FEF80939B01109220065B
:1034E000109221061092220610922306B89AD69ABC
:1034F000D59A8FB7F894992720910601309107014A
:103500008FBF3093C1042093C00480910801992794
:1035100090938E0180938D018FE1809319068AE14B
:103520008093260681E08093850180938F018093AC
:10353000250680932B0780B7886080BF8BE083BF10
:1035400086EE81BF87B7826087BF0E94D5030E9445
:103550007D198823E1F7802F99278FBF789460E049
:1035600070E081E00E94600B8FB7F894C82FDD27D0
:1035700002C00E94A9068091ED068F3FD1F3909181
:10358000ED06E091ED06FF27EF58FE4F8081809316
:10359000ED068091ED068F3F11F480933407292FBB
:1035A0003327F901EF58FE4F8FEF80832F3F09F348
:1035B000CFBF822F0E94B914D7CF1092130610925A
:1035C0001506109214061092160619C01092880162
:1035D000109287011092890110921C0110922F07FE
:1035E00010922E071092300710921B011092F406D1
:1035F0001092F3061092F50680E090E044CF10920E
:103600008801109287011092890110921C0110927A
:103610002F0710922E071092300710921B01109264
:10362000F4061092F3061092F50681E090E02BCF9D
:1036300078941F920F920FB60F9211241F932F931D
:103640003F934F935F936F937F938F939F93AF932A
:10365000BF93EF93FF9387B78F7E87BF78941FB791
:10366000F8948091970190919801A0919901B0915F
:103670009A010097A105B10509F051C0809115018B
:10368000909116018530910561F18630910530F4F5
:103690008330910549F0049781F51AC08730910570
:1036A000F1F0089751F514C0869B0FC084E090E0BC
:1036B00090931601809315010E94C30227E030E029
:1036C00040E050E00E94800318C00E94151215C00F
:1036D0000E943108882389F40E943F120EC080E0C6
:1036E0000AC089E00E945F0F81E00E949B0383E093
:1036F0000E942E0D87E00E948B0F80911001909107
:103700001101019771F482E090E090931101809390
:103710001001DE98DE9A80E00E94BA0702C00E9483
:10372000E002812F99278FBF1FB7F8948091ED0693
:1037300020E030E08F3F11F021E030E0213011F443
:103740000E941B09812F99278FBFFF91EF91BF9195
:10375000AF919F918F917F916F915F914F913F9129
:103760002F911F910F900FBE0F901F901895789476
:103770001F920F920FB60F9211242F923F924F92E9
:103780005F926F927F928F929F92AF92BF92CF92F1
:10379000DF92EF92FF920F931F932F933F934F93DC
:1037A0005F936F937F938F939F93AF93BF93CF93C9
:1037B000DF93EF93FF93CCB5DDB580E286BF8FB783
:1037C000F894282E0E94C3029E01261B370B290164
:1037D000662457FC6094762C460E571E681E791E90
:1037E00080911501909116018530910521F0069781
:1037F00009F0E0C0BFC086E090E09093160180938E
:10380000150131E0332E30928B011092170180E0C8
:103810000E949B03E0919001F091910141AABB2786
:10382000A72D962D852D80ABC301AA27BB2787A77F
:10383000872D9927AA27BB2786A7E0919001F091B1
:10384000910185A5882309F484C06081655077279C
:103850004F01860E971EF4012081E1808281A380B2
:103860009927AA27BB27BA2FA92F982F8827332754
:1038700044275527522F442733272227FF24002788
:1038800011278701FF24EE242E293F29402B512B9D
:10389000BB24CC24DD242A293B294C295D29822BF9
:1038A000932BA42BB52B84199509A609B7098383FB
:1038B000292F3A2F4B2F552722839D014427552727
:1038C00021838B2F9927AA27BB278083C09824E0C8
:1038D000A40180E090E00E94590CC09AF40120817C
:1038E000E1808281A3809927AA27BB27BA2FA92F1D
:1038F000982F8827332744275527522F44273327CB
:103900002227FF24002711278701FF24EE242E29D8
:103910003F29402B512BBB24CC24DD242A293B29D1
:103920004C295D29822B932BA42BB52B840D951D3F
:10393000A61DB71D8383292F3A2F4B2F552722838E
:103940009D014427552721838B2F9927AA27BB2721
:103950008083E0919001F0919101818185FF02C007
:103960003092700183E00E942E0D87B78F7E87BF53
:1039700084997AC010928B0181E00E949B03E091B0
:103980009001F0919101818185FF0FC087E090E067
:1039900090931601809315010E94C30220E031E04C
:1039A00040E050E00E94800303C080E00E948B0F43
:1039B000849B5AC080911701882391F580918B01D7
:1039C000882371F511E010938B010E949B0380B353
:1039D0002091EC06283098F4E091F106E20FFF27E1
:1039E000E770F070EE0FFF1FEE0FFF1FEE59F94F5B
:1039F00040825182628273822F5F2093EC06109383
:103A00001701D093C704C093C60484992DC0992789
:103A100014E0969587951A95E1F7182F117001C05B
:103A200010E080918B018130F9F410928B010E949B
:103A30009B03109217011123B9F48091C604909151
:103A4000C704C81BD90B2A9778F48091EC06882309
:103A500019F081508093EC06809190019091910132
:103A6000009711F00E9434022FBE1FB7F894809186
:103A7000ED0620E030E08F3F11F021E030E0213012
:103A800011F40E941B09812F99278FBFFF91EF919D
:103A9000DF91CF91BF91AF919F918F917F916F9166
:103AA0005F914F913F912F911F910F91FF90EF9058
:103AB000DF90CF90BF90AF909F908F907F906F904E
:103AC0005F904F903F902F900F900FBE0F901F90E0
:103AD00018950F931F93CF93DF93EC010F811885F7
:103AE0008A81882311F081E036C061E081E00E9484
:103AF00070008823F9F48FB7F894282F332780912A
:103B0000100190911101892B11F02FBF10C081E09D
:103B100090E090931101809310012FBFDD9A0E94D5
:103B2000C30224E130E040E050E00E94800380E0E6
:103B300090E011C062E081E00E948A00882319F0C1
:103B400089E090E008C061E081E00E948A0088235B
:103B500071F785E090E09927F8018083882329F0A8
:103B6000EB81FC8182810E946C08DF91CF911F91D3
:103B70000F9108951F920F920FB60F9211241F9369
:103B80002F933F934F935F936F937F938F939F9365
:103B9000AF93BF93EF93FF9383B783BF00B600FC4F
:103BA000FDCF81B799270196AA27BB272091240131
:103BB000309125014091260150912701280F391F8E
:103BC0004A1F5B1F20932401309325014093260157
:103BD0005093270178940E94D5031FB7F8948091E1
:103BE000ED0620E030E08F3F11F021E030E02130A1
:103BF00011F40E941B09812F99278FBFFF91EF912C
:103C0000BF91AF919F918F917F916F915F914F91F4
:103C10003F912F911F910F900FBE0F901F901895FD
:103C200078941F920F920FB60F9211241F932F9327
:103C30003F934F935F936F937F938F939F93AF9334
:103C4000BF93EF93FF931FB7F8948091ED0620E0A8
:103C500030E08F3F11F021E030E0213011F40E947C
:103C60001B09812F99278FBFFF91EF91BF91AF91D2
:103C70009F918F917F916F915F914F913F912F9184
:103C80001F910F900FBE0F901F901895ACE2B0E0FF
:103C9000ECE4FEE10C941920222E332E442E552EF6
:103CA000662E772E882E992EFE013196A8E011926D
:103CB000AA95E9F729823A824B825C826D827E82E4
:103CC0008F829886FE013996B8E01192BA95E9F78D
:103CD000A986BA86CB86DC86ED86FE860F87188B92
:103CE00089819A81AB81BC8189A79AA7ABA7BCA720
:103CF0007C018D018FEF9FEFA0E0B0E0E822F92278
:103D00000A231B2389A59AA5ABA5BCA51D014424A4
:103D1000552489859A85AB85BC858DA39EA3AFA3C9
:103D2000B8A75C016D018FEF9FEFA0E0B0E0A82283
:103D3000B922CA22DB228DA19EA1AFA1B8A53D0167
:103D400088249924C801B701A60195010E94FA1F91
:103D500069A37AA38BA39CA3C801B701A401930113
:103D60000E94FA1F7B018C01C201B101A6019501DD
:103D70000E94FA1F5B016C01C201B101A401930111
:103D80000E94FA1F3B014C01EA0CFB1C0C1D1D1D7F
:103D900089A19AA1ABA1BCA19D01442755272E0D55
:103DA0003F1D401F511F2A153B054C055D0540F482
:103DB00080E090E0A1E0B0E0680E791E8A1E9B1EB4
:103DC000CA01AA27BB27860D971DA81DB91D8D8F77
:103DD0009E8FAF8FB8A3A9013327222789A19AA16B
:103DE000ABA1BCA1A070B070280F391F4A1F5B1F88
:103DF000298F3A8F4B8F5C8FA98CBA8CCB8CDC8C43
:103E0000ED8CFE8C0F8D18A1FE01719698E0119239
:103E10009A95E9F7ED8AFE8A0F8B188F2D813E81E6
:103E20004F8158856DA17EA18FA198A50E94FA1F90
:103E30003B014C012D853E854F85588969A57AA5A2
:103E40008BA59CA50E94FA1F2D893E894F89588D0C
:103E5000260F371F481F591F260D371D481D591D96
:103E60002D8B3E8B4F8B588F6D887E888F88988CDA
:103E70002A2D3B2D4C2D5D2D662D772D882D992DCE
:103E8000E2E1AC960C943520A0E1B0E0EAE4FFE179
:103E90000C941920222E332E442E552E662E772E6A
:103EA000882E992E002309F466C088E0FE01319621
:103EB00011928A95E9F729833A834B835C836D835A
:103EC0007E838F829887E0E2E01B1E16CCF52D8161
:103ED0003E814F815885602F772767FD7095DA0105
:103EE000C901062E04C0B695A795979587950A94A3
:103EF000D2F78D879E87AF87B88B04C0220F331F00
:103F0000441F551FEA95D2F789819A81AB81BC8104
:103F100004C0B695A795979587956A95D2F7282BF3
:103F2000392B4A2B5B2B29873A874B875C8729845F
:103F30003A844B845C846D847E848F8498881BC013
:103F40001D861E861F86188A2E2F332727FD309543
:103F5000309521953F4F8D819E81AF81B88504C0FA
:103F6000B695A795979587952A95D2F789879A87C9
:103F7000AB87BC87DCCF222D332D442D552D662DEC
:103F8000772D882D992DE2E160960C943520991BB0
:103F900079E004C0991F961708F0961B881F7A9540
:103FA000C9F780950895AA1BBB1B51E107C0AA1F42
:103FB000BB1FA617B70710F0A61BB70B881F991FCA
:103FC0005A95A9F780959095BC01CD01089597FB6E
:103FD000092E07260AD077FD04D0E5DF06D00020A1
:103FE0001AF4709561957F4F0895F6F79095819535
:103FF0009F4F0895629FD001739FF001829FE00D53
:10400000F11D649FE00DF11D929FF00D839FF00D57
:10401000749FF00D659FF00D9927729FB00DE11D03
:10402000F91F639FB00DE11DF91FBD01CF011124E0
:1040300008952F923F924F925F926F927F928F924C
:104040009F92AF92BF92CF92DF92EF92FF920F9327
:104050001F93CF93DF93CDB7DEB7CA1BDB0B0FB631
:10406000F894DEBF0FBECDBF09942A8839884888EE
:104070005F846E847D848C849B84AA84B984C88484
:10408000DF80EE80FD800C811B81AA81B981CE0F7B
:10409000D11D0FB6F894DEBF0FBECDBFED01089560
:1040A000DC0101C06D9341505040E0F70895FFCF0F
:0C40B0000100FFFFFFFF010022FFFFFFE7
:00000001FF
