:100000000C9449010C9468010C9468010C946801EB
:100010000C9468010C9468010C9468010C946801BC
:100020000C9468010C9468010C9468010C946801AC
:100030000C9468010C9468010C9468010C94B51040
:100040000C94B5110C9468010C940B110C9468017C
:100050000C94DE120C9468010C9468010C946801F5
:100060000C9468010C9433120C947C0D0C940714BE
:100070000C947F110C94EF110C94A3120C94680152
:100080000C946D120C9468010C946801000021100E
:10009000422063308440A550C660E77008812991F2
:1000A0004AA16BB18CC1ADD1CEE1EFF1311210029A
:1000B00073325222B5529442F772D6623993188342
:1000C0007BB35AA3BDD39CC3FFF3DEE36224433466
:1000D00020040114E664C774A44485546AA54BB592
:1000E00028850995EEE5CFF5ACC58DD5533672263A
:1000F00011163006D776F6669556B4465BB77AA7E2
:1001000019973887DFF7FEE79DD7BCC7C448E55885
:100110008668A7784008611802282338CCC9EDD931
:100120008EE9AFF9488969990AA92BB9F55AD44AD9
:10013000B77A966A711A500A333A122AFDDBDCCB81
:10014000BFFB9EEB799B588B3BBB1AABA66C877CA5
:10015000E44CC55C222C033C600C411CAEED8FFDD1
:10016000ECCDCDDD2AAD0BBD688D499D977EB66E79
:10017000D55EF44E133E322E511E700E9FFFBEEF21
:10018000DDDFFCCF1BBF3AAF599F788F8891A981E3
:10019000CAB1EBA10CD12DC14EF16FE18010A100CD
:1001A000C230E3200450254046706760B9839893BD
:1001B000FBA3DAB33DC31CD37FE35EF3B10290121D
:1001C000F322D2323542145277625672EAB5CBA589
:1001D000A89589856EF54FE52CD50DC5E234C3246D
:1001E000A01481046674476424540544DBA7FAB75D
:1001F0009987B8975FE77EF71DC73CD7D326F236BD
:100200009106B01657667676154634564CD96DC9A8
:100210000EF92FE9C899E9898AB9ABA9445865480C
:1002200006782768C018E1088238A3287DCB5CDBFC
:100230003FEB1EFBF98BD89BBBAB9ABB754A545A5C
:10024000376A167AF10AD01AB32A923A2EFD0FEDC8
:100250006CDD4DCDAABD8BADE89DC98D267C076CAC
:10026000645C454CA23C832CE01CC10C1FEF3EFF9C
:100270005DCF7CDF9BAFBABFD98FF89F176E367EFC
:10028000554E745E932EB23ED10EF01E00081C181F
:10029000141011241FBECFEFD0E1DEBFCDBF11E09F
:1002A000A0E0B1E0EAEDF8E200E00BBF02C0079089
:1002B0000D92A830B107D9F71DE0A8E0B1E001C068
:1002C0001D92AE35B107E1F70E94570F0C946C14E4
:1002D0000C9400008FB7F894992708958FBF089564
:1002E000813081F0813058F0823019F0813221F074
:1002F000F7CF8EE794E008958EEF99E0089583E4B8
:1003000094E0089586EB99E00895CF93DF93EC0194
:10031000DB01FA014115510519F481E090E00CC0B0
:100320008D919C911197918380834D935C938A81E9
:100330008F5F8A8380E090E0DF91CF910895FC0188
:100340000190F081E02D9F0111C08281861781F01C
:10035000D90107C08D919C911197AE17BF0729F065
:10036000DC011097B9F780E090E0FC01309769F765
:10037000CF010895282F9FB7F894E82FFF27EC545A
:10038000FB4F80818F3F91F48091390A821781F46D
:100390000DC02093F60906C0E091390AFF27EC54FE
:1003A000FB4F20832093390A20E007C025E005C0D9
:1003B0008091F6098F3F81F7ECCF892F99278FBF66
:1003C000822F992708959FB7F8948091A6098A30C3
:1003D00011F020E006C020E08091C504843009F4CB
:1003E00021E0892F99278FBF222349F086E00E94C0
:1003F000BA018FB7F894992710920A0106C08FB7F7
:10040000F894992721E020930A018FBF08952FB710
:10041000F89433278CB95E9A2FBF0895FC016115BB
:10042000710519F481E090E008958091EC079091B6
:10043000ED07892B19F085E090E008957093EE099F
:100440006093ED09F093ED07E093EC071092C70479
:100450001092C60481E08093C8045E9A569A808107
:1004600021E030E03093C7042093C6040E940702C5
:1004700080E090E0089580911B018E7F80931B01A6
:100480008EE78093BE0461E070E08EEB94E00E9402
:100490000E02992708951F931FB7F8948091350A8B
:1004A000882341F484E00E94BA01882319F481E092
:1004B0008093350A812F99278FBF1F9108957FB7A9
:1004C000F89462B720913F04309140044091410478
:1004D0005091420406B601FE0FC081B792B7280FB3
:1004E000311D411D511D2F5F3F4F4F4F5F4F290F52
:1004F000311D411D511D04C0260F311D411D511DCF
:10050000872F99278FBFCA01B9010895DF92EF9213
:10051000FF920F931F93CF93DF93EC01EF81F88548
:100520000190F081E02DE080F18002811381EB8168
:10053000FC81D2800E945F0229E0D29EF00111244A
:10054000E858F74F6083718382839383E482F58256
:100550000683178380858360808782E00E94BA01CA
:10056000DF91CF911F910F91FF90EF90DF90089551
:100570002FB7F89433272FBF0E9470010895DF92A0
:10058000EF92FF920F931F938FB7F894282F332782
:10059000D22E91B782B746B7981711F041FF02C02B
:1005A0002FBF6AC08091F7078823E1F10E945F02A4
:1005B000E090AB09F090AC090091AD091091AE0943
:1005C000209178043091790440917A0450917B0411
:1005D0006E197F09800B910B6217730784079507CB
:1005E00020F01092F70771E01EC02E0D3F1D401F36
:1005F000511F80913F0490914004A0914104B0911B
:100600004204281B390B4A0B5B0B273E3105410581
:10061000510540F4822F223010F070E005C070E0E8
:1006200082E002C070E086EE682F615000B601FCE7
:10063000FDCF82B7681709F46F5F20913F043091B6
:1006400040044091410450914204DA01C9010196ED
:10065000A11DB11D860F911DA11DB11D821793070C
:10066000A407B50710F4622F609561BFDFBE772342
:1006700019F080E00E94BA011F910F91FF90EF9056
:10068000DF900895AFB7F894BB27E1E0E093F70758
:100690006093AB097093AC098093AD099093AE0958
:1006A000209378043093790440937A0450937B0428
:1006B000AFBF0E94BF02089510927F0410927E0483
:1006C00082E08093800410928204109281048DE372
:1006D00094E0909384048093830410928504109294
:1006E00086048DE394E190938D0480938C041092A2
:1006F0008F0410928E04109291041092900480E066
:1007000090E008959FB7F8946091000870910108F7
:10071000209188003091890080917C0082FF06C082
:100720006F5F7F4F2091880030918900892F992732
:100730008FBF88279927CB0177276627442755271E
:10074000622B732B842B952B0895FC0182816817F3
:1007500018F0E0E0F0E00BC00190F081E02D309760
:1007600021F405C00190F081E02D6150D8F7CF0150
:1007700008958091F40790E0882309F491E099238B
:1007800009F451C0E091F507F091F60787818230B6
:1007900009F449C087B7992783709070892B19F4A1
:1007A000E5E0F0E013C080B7992787709070892B3F
:1007B000D1F781B792B7891B8C3030F082B7853F73
:1007C00018F4E3E0F0E002C0E2E0F0E087B7887BF5
:1007D000C1F480917D008B7FA1F46E9912C08AB123
:1007E00090919A00892B807C61F48091740082FD45
:1007F00008C0379B03C081E090E005C085E090E031
:1008000002C080E090E025B78E1708F4E82FFF279C
:10081000E457FD4FE491237E2062E22BE5BF7894FC
:100820008895F894A6CF0895CF93DF93EC016623C3
:1008300051F4888199810097C9F0FC0180819181F0
:10084000998388830DC061500E94A503DC01892B28
:1008500069F0ED91FC911197808191818D939C932A
:10086000118210828A8181508A8302C0E0E0F0E028
:10087000CF01DF91CF910895802DE091F409F0919F
:10088000F509858B812DE091F409F091F509868BAE
:10089000822DE091F409F091F509878B832DE09189
:1008A000F409F091F509808F842DE091F409F0911D
:1008B000F509818F852DE091F409F091F509828F7A
:1008C000862DE091F409F091F509838F872DE09151
:1008D000F409F091F509848F882DE091F409F091E5
:1008E000F509858F892DE091F409F091F509868F3E
:1008F0008A2DE091F409F091F509878F8B2DE09115
:10090000F409F091F50980A38C2DE091F409F091A0
:10091000F50981A38D2DE091F409F091F50982A3E9
:100920008E2DE091F409F091F50983A38F2DE091CC
:10093000F409F091F50984A3802FE091F409F09176
:10094000F50985A3812FE091F409F091F50986A3BB
:10095000822FE091F409F091F50987A3832FE091AC
:10096000F409F091F50980A7842FE091F409F09142
:10097000F50981A7852FE091F409F091F50982A787
:10098000862FE091F409F091F50983A7872FE09174
:10099000F409F091F50984A7882FE091F409F0910A
:1009A000F50985A7892FE091F409F091F50986A74B
:1009B0008A2FE091F409F091F50987A78B2FE09138
:1009C000F409F091F50980AB8C2FE091F409F091D6
:1009D000F50981AB8D2FE091F409F091F50982AB17
:1009E0008E2FE091F409F091F50983AB8F2FE09100
:1009F000F409F091F50984AB8FB7E091F409F09117
:100A0000F509848B8DB79EB7E091F409F091F50953
:100A100096838583E091AF09F091B0098581968135
:100A20009EBF8DBF84898FBF8589082E8689182E29
:100A30008789282E808D382E818D482E828D582EC4
:100A4000838D682E848D782E858D882E868D982EA8
:100A5000878DA82E80A1B82E81A1C82E82A1D82E64
:100A600083A1E82E84A1F82E85A1082F86A1182F36
:100A700087A1282F80A5382F81A5482F82A5582F20
:100A800083A5682F84A5782F85A5882F86A5982F04
:100A900087A5A82F80A9B82F81A9C82F82A9D82FF0
:100AA00083A9E82F84A9F82F08951092B70910920E
:100AB000B60981E08093B8091092BA091092B90979
:100AC00089EE97E09093BC098093BB091092BD0911
:100AD0001092BE0984E59FE09093C5098093C409F4
:100AE0001092C7091092C6091092C9091092C8093C
:100AF00080E090E008951092440410924304109214
:100B00004504109247041092460488E59DE09093B6
:100B100049048093480410924A0410924B0480E4E4
:100B200094E19093520480935104109254041092D3
:100B30005304109256041092550480E090E00895FA
:100B40000895E091AF09F091B009858196819EBF2B
:100B50008DBF84898FBF8589082E8689182E878945
:100B6000282E808D382E818D482E828D582E838D93
:100B7000682E848D782E858D882E868D982E878D73
:100B8000A82E80A1B82E81A1C82E82A1D82E83A123
:100B9000E82E84A1F82E85A1082F86A1182F87A101
:100BA000282F80A5382F81A5482F82A5582F83A5EF
:100BB000682F84A5782F85A5882F86A5982F87A5CF
:100BC000A82F80A9B82F81A9C82F82A9D82F83A9BF
:100BD000E82F84A9F82F0895ECE8F0E06927660F64
:100BE000F11DE60FF11DC895982F802D3196C895FF
:100BF00090250895982F80911601882389F59923CF
:100C000079F531E03093160180910001809317014E
:100C100020910B01822F81708093B3048091050194
:100C200090910601909319018093180180910C0115
:100C300080931A0132273170267EE32FFF27EE0FB3
:100C4000FF1FEF5FFE4F808191819093060180939B
:100C50000501232B20930B0189E00E94BA0108951E
:100C600080910B0180FF02C08B7F01C08D7F80933C
:100C70000B0108950F931F93082F162F8091C50421
:100C80008130D9F0813038F0823009F44AC08330A5
:100C900009F00EC159C0002309F43EC11092B209F7
:100CA0001092B1091092AA091092EF091092C9048A
:100CB00010920308109202081FC1002309F02CC1F2
:100CC00080910208909103080E94EC05909303081C
:100CD0008093020882E08093C5041093EF091434D6
:100CE00009F0E6C00BC18695869503C080910B0183
:100CF0008695817009F0DCC080910B01992311F079
:100D0000846001C0826080930B0180910B01877E1B
:100D1000886080930B0110920C018FEF809300018B
:100D2000FBC0002309F0C4C06093C904809102088D
:100D3000909103080E94EC059093030880930208A9
:100D400083E08093C504E8C08091AA098F3F09F42D
:100D5000AFC0002309F447C0823008F4A9C0E09175
:100D6000B109EE2309F4D1C04E2F4150E42FFF27E3
:100D7000EF54F64F82819927382F2227442311F40C
:100D8000E2E002C0E42FE150FF27EF54F64F8281EA
:100D90009927282B392B8091020890910308281756
:100DA000390709F085C080E00E94FA053091C90436
:100DB0008091F8072091F907982F9F5F963008F0EF
:100DC00090E0921709F474C0E82FFF27E850F84F1D
:100DD00032838F5F8093F807863010F01092F80707
:100DE0000E944B0265C0823008F44EC0E091B20907
:100DF000FF27EF54F64F8281482F5527342F20913B
:100E00000B01822F86958695869583709927813070
:100E1000910519F00297F9F40EC0277E2061209306
:100E20000B01442311F485E001C080E080930C01A4
:100E30003093000110C080910C01843360F4E09184
:100E40000501F0910601E80FF11D408380910C012E
:100E50008F5F80930C018091B209E82FFF27EF5438
:100E6000F64F62818F5F8093B209833010F0109249
:100E7000B209772780910208909103080E94EC053F
:100E800090930308809302088091B109E82FFF270F
:100E9000EF54F64F12838F5F8093B109833010F0C7
:100EA0001092B1098091AA098F5F8093AA0934C07A
:100EB0001092B2091092B1091092C5041092AA09B9
:100EC0001092EF091092C9041092030810920208C0
:100ED00080911B018D7F80931B0181E00E94FA05A8
:100EE00080910A01882331F084E08093C5040E9438
:100EF000E30112C0002381F081E023CF80910B0138
:100F0000982F917080FDEFCEF1CE8091B509992791
:100F1000382F222742E036CF1F910F910895982F46
:100F20008D57823068F480911B01816080931B0192
:100F300080E289278093A9098DE78093BE0402C0CF
:100F40009093BE0461E070E08EEB94E00E940E028C
:100F5000992708951F93182F0E947001FC01878123
:100F6000833019F081E090E014C082E087838091A3
:100F7000F5079091F607E817F90749F0812F0E94CD
:100F80007001AC0162EF77E0CB010E94850180E047
:100F900090E01F910895CF93DF93FC01C781D08526
:100FA0008281882329F485E00E94BA01188208C052
:100FB00081E088830380F481E02D82810E94AA076A
:100FC000DF91CF910895CF93DF93DC01FC01C781BE
:100FD000D0854C81888199812281EA81FB81868339
:100FE000892F992785832387418780910F019091CD
:100FF0001001892B89F52FB7F894332785E080936A
:10100000120110921301F0930E01E0930D0182E0A2
:1010100090E09093100180930F01109215011092AF
:101020001401445F409311012FBF9FB7F894809142
:10103000F007882311F020E006C081E08093F007DC
:101040001092F10721E0892F99278FBF222371F099
:101050000E944B021D8211C085E090E08D83ED015E
:10106000EB81FC8182810E94AA0707C010921001C7
:1010700010920F0181E090E0F1CFDF91CF910895C0
:10108000FF920F931F93182F8FB7F894F82E1130FB
:1010900009F46CC0113008F48BC0123009F471C02F
:1010A000113209F479C0709311006093100010920E
:1010B00008001092010010920000113041F0113030
:1010C00018F0123039F072C00E947B0505C00E94F2
:1010D000550502C00E945C03082F812F0E947001F9
:1010E000DC01FC011782E091AF09F091B009838126
:1010F0009481FD0194838383199685E0FD0111920B
:101100008A95E9F719972DB73EB7FD01858196813C
:101110009EBF8DBF8AE99CE08F939F938DB79EB74A
:10112000FD01968385833EBF2DBF8FB7FD01848B64
:10113000002309F048C0812F0E947001FC018781C3
:10114000882319F081E090E00FC08091F9098F5F4A
:101150008093F90982E08783AF0162EF77E0CB01EA
:101160000E94850180E090E0FFBE30C07093C70907
:101170006093C6091092BE091092B7091092B60981
:10118000A6CF70938F0460938E0410928604109201
:101190007F0410927E049ECF70930F0A60930E0A14
:1011A0001092060A1092FF091092FE0901E095CFF5
:1011B000709354046093530410924B0410924404AF
:1011C0001092430481CFFFBE81E090E01F910F9108
:1011D000FF9008959F92AF92BF92CF92DF92EF92CD
:1011E000FF920F931F93CF93DF935B016C01C0E0DD
:1011F000D0E0E8E7F8E09C2E608561FF48C02081E0
:10120000318142815381E480F58006811781D601C6
:10121000C501821B930BA40BB50B8E159F05A00770
:10122000B107A8F160FF03C06D7F608708C02E0D75
:101230003F1D401F511F2083318342835383892DDB
:101240000E94B802EC01EA89FB890780F085E02D55
:101250008481853051F481E08483EA89FB890380AD
:10126000F481E02D82810E94AA07892D0E94B80294
:10127000EC01EA89FB89858196818658924069F460
:101280000380F481E02D82810E94AA0706C0219686
:101290003996C132D10509F0AECF82E00E94BA0181
:1012A000DF91CF911F910F91FF90EF90DF90CF9042
:1012B000BF90AF909F900895EF92FF920F931F936E
:1012C000E0910F08E1FF2FC0209107083091080836
:1012D0004091090850910A08E0900B08F0900C0822
:1012E00000910D0810910E08621B730B840B950B77
:1012F0006E157F0580079107B0F0E0FF04C0ED7F19
:10130000E0930F080CC02E0D3F1D401F511F20936E
:101310000708309308084093090850930A080E9470
:101320005F020E94EA0881E00E94BA011F910F91BA
:10133000FF90EF900895AF92BF92CF92DF92EF921D
:10134000FF920F931F93CF93DF93D82E24E0821741
:1013500009F40EC1281778F031E0831709F456C05C
:10136000831708F142E0841709F49CC053E0851705
:1013700009F082C2F3C087E0D81609F4DFC18D15E9
:1013800048F0E5E0DE1609F4CBC1F6E0DF1609F01F
:1013900073C2D0C128E0D21609F4DCC139E0D316FB
:1013A00009F06AC209C28091C404882361F52091C2
:1013B000F0093091F1094091F2095091F309EFB72A
:1013C000F894FF276091AB097091AC098091AD0949
:1013D0009091AE09E0907804F090790400917A043D
:1013E00010917B046E0D7F1D801F911FEFBF209316
:1013F000F0093093F1094093F2095093F3091092E8
:10140000C4040E9442030E945F023AC00E945F022D
:101410007B018C018FB7F89499271092F7078FBF43
:1014200080910F0881FF28C28091070890910808D9
:10143000A0910908B0910A08A8019701281B390B4F
:101440004A0B5B0BDA01C90120910B0830910C08A3
:1014500040910D0850910E08281B390B4A0B5B0B6D
:101460002F3F8FEF38078FEF48078FE7580709F4B2
:1014700003C212161306140615062CF0C801B70194
:101480000E945C09F9C12093F0093093F10940935F
:10149000F2095093F309D092C404C801B7010E9425
:1014A0004203EAC10E945F027B018C0180910F0818
:1014B0008D7F80930F087FEFA72E7FEFB72E7FEFF2
:1014C000C72E7FE7D72E60E0E8E7F8E0808581FF50
:1014D0001CC080819181A281B381A8019701281B42
:1014E000390B4A0B5B0BDA01C90124813581468136
:1014F0005781281B390B4A0B5B0B2A153B054C0502
:101500005D051CF459016A0161E0399639E0E13A60
:10151000F307E1F6662309F4AFC11A141B041C0497
:101520001D042CF0C801B7010E94EA08A5C1E09291
:101530000708F09208080093090810930A08A0927F
:101540000B08B0920C08C0920D08D0920E08809142
:101550000F08836080930F0881E0EDC0E0910801DF
:10156000F091090125813681CF01F901099584C1E6
:101570008FB7F8941092350A2091A60940E02830E0
:1015800009F441E030E0293009F431E0442311F45A
:10159000332351F01092A609E0910608FF27EE0FC1
:1015A000FF1FE251F84F108299278FBF442311F497
:1015B000332319F18091FA098F5F8093FA098091A2
:1015C000EB078334A1F49FB7F8942091F907809139
:1015D000F807821741F0822F8F5F8093F9078630DA
:1015E00010F01092F907892F99278FBF0AC0A0E049
:1015F000442309F4A1E071E006C0222311F010E0B9
:1016000069C0A0E070E08FB7F894992720910A0193
:101610008FBF222341F08FB7F89499272AE02093B7
:10162000A6098FBF43C08FB7F89499276091EE0742
:101630004091F0078FBF8FB7F894282F332750E0E1
:101640009091F8078091F907981709F451E02FBF9E
:10165000552349F5662339F55FB7F89482E0809306
:10166000EE078FB7F894282F332740E09091F807C2
:101670008091F907981709F441E02FBF442311F036
:1016800080E006C0E091F907FF27E850F84F82811B
:101690008093EF07852F99278FBF83E48093EB0713
:1016A000109206080BC04150423010F010E007C005
:1016B00085E48093EB0781E08093060811E07723AF
:1016C00049F08FB7F8949927A09313018FBF88E052
:1016D0000E94BA018091A6098A3019F40E94E301A0
:1016E000CBC0112309F4C8C02FB7F8943327109248
:1016F0005B0D10925A0D1092CA0481E08093A609E6
:101700002FBF0E943B02882309F4B6C08FB7F8941C
:10171000992729E02093A6098FBF0E944B02ACC0F5
:10172000569857981092A5091092C804539A549A43
:10173000579A06C087E00E94BA019EC053985498F9
:1017400060E08BEF99E00E949F01FC01A781B085CA
:101750001C922BC01092100110920F018FB7F894B9
:101760009927209113018FBF80911401811123E0EB
:10177000E0910D01F0910E0180911501882309F08F
:101780007BC09385E0911D01F0911E01309709F413
:1017900073C08281891709F06FC00780F085E02D42
:1017A0002583E0911D01F0911E010380F481E02D5D
:1017B00082810E94AA0760C08FB7F8949927209170
:1017C00017010091180110911901F090B3048FBF17
:1017D0002223D9F5E8016B8580911C01813011F439
:1017E0006FEF01C0772786E39AE00E949F01DC013A
:1017F000009759F1FC01C781D0858C81853029F58E
:1018000083819481FC0182819927FC0153E0EE0FD2
:10181000FF1F5A95E1F7E80FF91FE058F74F808155
:101820008D7F80838A819B81A80124E3FA01019046
:10183000AF01FC010192CF012150C1F71C82ED01E3
:10184000EB81FC8182810E94AA078FB7F894EF2D6B
:10185000FF27EE0FFF1FEF5FFE4F118300832091E4
:101860000B01FF2011F02B7F01C02D7F20930B0176
:101870001092160199278FBFDF91CF911F910F9181
:10188000FF90EF90DF90CF90BF90AF900895809140
:10189000F6098F3FF9F09091F609E091F609FF27DC
:1018A000EC54FB4F80818093F6098091F6098F3FBD
:1018B00011F48093390A292F3327F901EC54FB4F97
:1018C0008FEF80832F3F31F0822F0E949B0981E0B0
:1018D00090E0089580E090E00895E091F507F091A0
:1018E000F6078781823029F4F093B009E093AF09BD
:1018F0001AC08091A7099091A809009749F0909388
:10190000B0098093AF091092A8091092A7090BC0E3
:101910006091F407615082EF97E00E941404909365
:10192000B0098093AF09E091AF09F091B00981E06F
:10193000878308958FB7F89499270091AF09109184
:10194000B0098FBF7894E801EE85FF858889998971
:101950000995CFB6F894F80117828091F909815062
:101960008093F909AA24BB24EE24FF24E801898589
:10197000882329F4E8E0F0E0EE0EFF1E16C0E70130
:10198000DD24F801818580FF03C08C2F0E94AA0707
:10199000F8018185869581872196D394F8E0DF163A
:1019A00081F788E090E0E80EF91E0894A11CB11CB4
:1019B0000F5F1F4F95E0A916B104C1F60E94B9034D
:1019C0000E946D0C0E94A1058C2D99278FBF9093CA
:1019D000F5098093F4090E946D0C2091AF093091B4
:1019E000B0098091F4099091F5092817390711F091
:1019F0000E943C040895CF93DF938FB7F894C82FCB
:101A0000DD27E091AF09F091B00987818130E1F4E1
:101A100082E087834091AF095091B0098091F5072A
:101A20009091F6074817590729F062EF77E0CB014C
:101A30000E9485018091AF099091B0090E94E70C46
:101A4000CFBF80E090E003C0CFBF81E090E0DF91A6
:101A5000CF9108950F931F93CF93DF93C1E0D0E010
:101A600000E010E013C0CE01880F991FC80FD91FE6
:101A70002F5F3F4F24363105B1F7C093C3040E9456
:101A8000FB0C0F5F1F4F0436110519F020E030E00A
:101A9000EACFDF91CF911F910F910895CF93DF93FC
:101AA000C0E0D0E00E94FB0C2196C436D105D1F7EE
:101AB00060E070E082E00E944008DF91CF910895DD
:101AC00081E20E94AA078823B1F4E091AF09F09166
:101AD000B0098281813279F08781813061F4F0939D
:101AE000A809E093A70984E087838091AF099091CA
:101AF000B0090E94E70C089578941F920F920FB6D8
:101B00000F9211241F932F933F934F935F936F93E3
:101B10007F938F939F93AF93BF93EF93FF931FB7E1
:101B2000F8948091F60920E030E08F3F11F021E039
:101B300030E0213011F40E94600D812F99278FBF72
:101B4000FF91EF91BF91AF919F918F917F916F9195
:101B50005F914F913F912F911F910F900FBE0F906A
:101B60001F9018950F931F93E091AF09F091B00962
:101B70008781813019F081E090E00DC083E0878398
:101B80000091AF091091B0090E94B903C8010E94E9
:101B9000E70C80E090E01F910F9108951F93CF9381
:101BA000DF931FB7F8947093090160930801FB015C
:101BB0004283C0910801D0910901E091AF09F091F1
:101BC000B009FC83EB83738B628B38872F8300977C
:101BD00041F09E838D8383E00E94BA0181E20E94DE
:101BE000AA070E94B20D212F33272FBF9927DF911B
:101BF000CF911F910895BF92CF92DF92EF92FF9203
:101C00000F931F93CF93DF93CDB7DEB72F970FB608
:101C1000F894DEBF0FBECDBFB82E8B017A01C22E65
:101C2000DFB6F894E091AF09F091B0098091A10975
:101C3000882339F481E08093A10980858F5F8087B4
:101C400008C0AF0162EA79E0CB010E9485010E94E1
:101C5000B20D8D2D99278FBF80911D0190911E018E
:101C6000892BC9F4BE01695F7F4F70931E01609399
:101C70001D011A830983FC82EB82CD829E012F5FB6
:101C80003F4F4B2D83EE97E00E94CE0D10921E0128
:101C900010921D0102C085E08E831FB7F8948091D9
:101CA000A1098130B9F4E091AF09F091B0098085C4
:101CB000815080876091A409615082EA99E00E9476
:101CC0001404FC01892B21F082810E94AA0702C022
:101CD0001092A1098E81212F33272FBF99272F968C
:101CE0000FB6F894DEBF0FBECDBFDF91CF911F912D
:101CF0000F91FF90EF90DF90CF90BF900895FF92EB
:101D00000F931F93CF93DF93CDB7DEB7EE970FB648
:101D1000F894DEBF0FBECDBF0E9482032091BF04A6
:101D20003091C0044091C1045091C204621B730BF6
:101D3000840B950B6093BF047093C0048093C1041F
:101D40009093C2048FB7F894082F1127F02E60E00B
:101D50008BEF99E00E949F01892B11F00FBFF2CF0A
:101D60001B821A828E010E5F1F4F6091FD098091C8
:101D7000FD09861790F0662329F4A8016BEF79E03E
:101D8000CB0109C061508BEF99E00E94A503A80127
:101D9000BC018BEF99E00E948501FFBE9E012F5F81
:101DA0003F4F40E0BE016E5F7F4F8BEC97E00E949B
:101DB000CE0D3FB7F894E091FB09F091FC09309704
:101DC00019F1E017F10769F4808191819093FC0982
:101DD0008093FB091182108212C0A017B10731F065
:101DE000FD01A081B1811097C1F70EC0309761F05D
:101DF0008D919C911197918380831D921C9280916B
:101E0000FD0981508093FD092981832F99278FBF78
:101E1000222309F097CFCE01479690937D048093BB
:101E20007C048091BF049091C004A091C104B09142
:101E3000C2048F8B988FA98FBA8F24E0AE01455FC3
:101E40005F4F6FEF7FEF84EE0E94FB0D8823A9F7B1
:101E5000E0917C04F0917D048091C3049927AA2726
:101E6000BB2780839183A283B38324E0AE01455FC7
:101E70005F4F6FEF7FEF84EE0E94FB0D8823A9F781
:101E80008FB7F89499272BB332E023272BBB8FBF52
:101E9000EE960FB6F894DEBF0FBECDBFDF91CF91A7
:101EA0001F910F91FF9008950E944E0D0895FF928B
:101EB0000F931F938FB7F8941092F90981E20E9453
:101EC0007001FC019093F6078093F50781E282830D
:101ED0001092F3071092F2071092F407E091F507C1
:101EE000F091F607F093B009E093AF0911E0178382
:101EF000E091AF09F091B009148213821092A80901
:101F00001092A709FFB6F8944AE050E06FEF70E036
:101F100084EB94E00E9465148FEF8093F609809320
:101F2000390A1EBD88E080BF83E083BF8CB59DB5B4
:101F30004AE72CB53DB52817390708F4415044232A
:101F400011F0C901F6CF92B782B78917E9F32CB522
:101F50003DB592B782B78917E9F38CB59DB5821B61
:101F6000930B4096B5E096958795BA95E1F79093D7
:101F7000F8098093F70913BE83B78EBD8EB580BF75
:101F800012BE1DBC1CBC8FEF86BF86B780937C0041
:101F900080B7992787709070892BD1F7D29AD19A00
:101FA000D09ADA9AD99AD89A15BA8FEF84BBD49876
:101FB000DC98109289001092880080917D008460E6
:101FC00080937D0080918A00887F826080938A0060
:101FD00080E285BF0E94470C8823E1F71092A10997
:101FE0001092A3091092A2091092A4091092370A24
:101FF0001092360A1092380A10921C011092FC09B5
:102000001092FB091092FD0912E006E06091F709B9
:102010007091F80988279927ACE0660F771F881F11
:10202000991FAA95D1F720E031EE40E050E00E94E0
:1020300043142150304029B9832F99278093900071
:102040001BB9009395001AB82093990080939800CB
:1020500010939B0000939D0010929A0084E490E0FE
:102060009093EC098093EB091092EE071092F00721
:102070001092A6091092CA041092EB071092FA0966
:1020800010925B0D10925A0D1092350A10920608AC
:102090001092B2091092B1091092C5041092AA09C7
:1020A0001092EF091092C9041092030810920208CE
:1020B0001092F9071092F8070E945C030E945505E0
:1020C0000E947B0580B7886080BF8BE083BF86EE6F
:1020D00081BF87B7826087BF0E94BF020E94470C02
:1020E0008823E1F78F2D99278FBF78941092C3042E
:1020F0000E9482036093BF047093C0048093C10464
:102100009093C20460E070E080E00E94400860E0CC
:1021100070E081E00E9440088FB7F894082F1127E3
:1021200002C00E94B20D8091F6098F3FD1F39091C9
:10213000F609E091F609FF27EC54FB4F808180936C
:10214000F6098091F6098F3F11F48093390A292FFF
:102150003327F901EC54FB4F8FEF80832F3F09F3B6
:102160000FBF822F0E949B09D7CF1F920F920FB6ED
:102170000F9211241F932F933F934F935F936F936D
:102180007F938F939F93AF93BF93EF93FF9383B707
:1021900083BF00B600FCFDCF81B799270196AA271F
:1021A000BB2720913F04309140044091410450915D
:1021B0004204280F391F4A1F5B1F20933F043093AE
:1021C0004004409341045093420478940E94BF021B
:1021D0001FB7F8948091F60920E030E08F3F11F0AE
:1021E00021E030E0213011F40E94600D812F992709
:1021F0008FBFFF91EF91BF91AF919F918F917F9191
:102200006F915F914F913F912F911F910F900FBE52
:102210000F901F9018951F920F920FB60F921124D6
:102220001F932F933F934F935F936F937F938F935E
:102230009F93AF93BF93EF93FF935F9B3DC06CB1B0
:10224000E0910408F09105083097F9F08091330A85
:102250009091340AE80FF91F608301969093340A35
:102260008093330A20915C0D30915D0D82179307A6
:1022700018F110920508109204088091A509833086
:10228000D9F057981092A50917C06E3719F460E07D
:1022900081E010C080911B016D3721F48260809332
:1022A0001B010AC081FF05C08D7F80931B0180E266
:1022B000682780E00E943A061FB7F8948091F609DB
:1022C00020E030E08F3F11F021E030E0213011F4C8
:1022D0000E94600D812F99278FBFFF91EF91BF91D1
:1022E000AF919F918F917F916F915F914F913F91AE
:1022F0002F911F910F900FBE0F901F9018957894FB
:102300001F920F920FB60F9211241F932F933F939A
:102310004F935F936F937F938F939F93AF93BF93ED
:10232000EF93FF931FB7F8948091F60920E030E017
:102330008F3F11F021E030E0213011F40E94600D58
:10234000812F99278FBFFF91EF91BF91AF919F91FF
:102350008F917F916F915F914F913F912F911F913D
:102360000F900FBE0F901F9018951F920F920FB6EF
:102370000F9211241F932F933F934F935F936F936B
:102380007F938F939F93AF93BF93EF93FF9383B705
:1023900083BF00B600FCFDCF1FB7F8948091F6090B
:1023A00020E030E08F3F11F021E030E0213011F4E7
:1023B0000E94600D812F99278FBFFF91EF91BF91F0
:1023C000AF919F918F917F916F915F914F913F91CD
:1023D0002F911F910F900FBE0F901F90189578941A
:1023E0001F920F920FB60F9211241F932F933F93BA
:1023F0004F935F936F937F938F939F93AF93BF930D
:10240000EF93FF938FB7F8949927209100083091AC
:1024100001082F5F3F4F30930108209300088FBFC2
:102420001FB7F8948091F60920E030E08F3F11F05B
:1024300021E030E0213011F40E94600D812F9927B6
:102440008FBFFF91EF91BF91AF919F918F917F913E
:102450006F915F914F913F912F911F910F900FBE00
:102460000F901F90189578941F920F920FB60F92AD
:1024700011241F932F933F934F935F936F937F93F9
:102480008F939F93AF93BF93EF93FF9380918800B7
:10249000909189001FB7F8948091F60920E030E010
:1024A0008F3F11F021E030E0213011F40E94600DE7
:1024B000812F99278FBFFF91EF91BF91AF919F918E
:1024C0008F917F916F915F914F913F912F911F91CC
:1024D0000F900FBE0F901F90189578941F920F9237
:1024E0000FB60F9211241F932F933F934F935F9337
:1024F0006F937F938F939F93AF93BF93EF93FF93CC
:102500001FB7F8948091F60920E030E08F3F11F07A
:1025100021E030E0213011F40E94600D812F9927D5
:102520008FBFFF91EF91BF91AF919F918F917F915D
:102530006F915F914F913F912F911F910F900FBE1F
:102540000F901F9018951F920F920FB60F921124A3
:102550001F932F933F934F935F936F937F938F932B
:102560009F93AF93BF93EF93FF9380919B0087FF5F
:1025700002C080919C001FB7F8948091F60920E07A
:1025800030E08F3F11F021E030E0213011F40E9463
:10259000600D812F99278FBFFF91EF91BF91AF9170
:1025A0009F918F917F916F915F914F913F912F916B
:1025B0001F910F900FBE0F901F90189578941F9247
:1025C0000F920FB60F921124FF920F931F932F9328
:1025D0003F934F935F936F937F938F939F93AF93AB
:1025E000BF93CF93DF93EF93FF932091C604309175
:1025F000C7048091ED099091EE092817390780F4FE
:10260000E091EC07F091ED07E20FF31F80812F5F5F
:102610003F4F3093C7042093C6040E940702D0C0E6
:102620001092ED071092EC071092C8045698809112
:102630001B0180FF0EC08E7F80931B018091A90932
:102640008093BE0461E070E08EEB94E00E940E0285
:10265000B7C08091A609843009F494C0853040F455
:10266000823021F18330B8F5813009F0A4C00DC06B
:10267000863009F495C0863008F48BC0873009F4A1
:1026800096C0883009F097C099C08091EB070E94EE
:102690008F07182F83E08093A6096091EB07809144
:1026A0005A0D90915B0D0E94EC0510C08091FA09C3
:1026B0000E948F07182F83E08093A6096091FA0982
:1026C00080915A0D90915B0D0E94EC0590935B0DEB
:1026D00080935A0D6EC0FFB6F894E0910608FF276C
:1026E000EE0FFF1FE151F84F80810E948F07082FE6
:1026F00010910608C12FDD27FE01EE0FFF1FE151EB
:10270000F84F608180915A0D90915B0D0E94EC050D
:1027100090935B0D80935A0D2091CA042F5F2093F4
:10272000CA04113039F580911201E0910D01F09148
:102730000E01E80FF11DE0818F5F809312019091EF
:102740001101981730F482E08093F00740E050E0E8
:1027500002C04E2F5527DE01AA0FBB1FFD01E2511B
:10276000F84F8081823031F02F3F21F0A151B84FD6
:102770004C9303C084E08093A609102F8F2D9927D6
:102780008FBF17C080915A0D0E948F07182F85E0C8
:102790000BC080915B0D0E948F07182F86E004C04C
:1027A0000E943B02182F87E08093A60902C088E0B0
:1027B00003C0112329F089E08093A6090E944B02EF
:1027C0001FB7F8948091F60920E030E08F3F11F0B8
:1027D00021E030E0213011F40E94600D812F992713
:1027E0008FBFFF91EF91DF91CF91BF91AF919F91FB
:1027F0008F917F916F915F914F913F912F911F9199
:102800000F91FF900F900FBE0F901F901895789426
:102810001F920F920FB60F9211241F932F933F9385
:102820004F935F936F937F938F939F93AF93BF93D8
:10283000EF93FF931FB7F8948091F60920E030E002
:102840008F3F11F021E030E0213011F40E94600D43
:10285000812F99278FBFFF91EF91BF91AF919F91EA
:102860008F917F916F915F914F913F912F911F9128
:102870000F900FBE0F901F9018950E947F0E089525
:102880000E942A0D0895A1E21A2EAA1BBB1BFD016E
:102890000DC0AA1FBB1FEE1FFF1FA217B307E4073F
:1028A000F50720F0A21BB30BE40BF50B661F771F97
:1028B000881F991F1A9469F7609570958095909577
:1028C0009B01AC01BD01CF010895DC0101C06D93F6
:0A28D00041505040E0F70895FFCF9B
:0828DA00FF100844081008007B
:00000001FF
