:100000000C9449010C9468010C9468010C946801EB
:100010000C9468010C9468010C9468010C946801BC
:100020000C9468010C9468010C9468010C946801AC
:100030000C9468010C9468010C9468010C9488126B
:100040000C9462150C9468010C94E6080C946801F9
:100050000C94DE120C9468010C9468010C946801F5
:100060000C9468010C944B140C9452120C94BB1415
:100070000C9485140C9407140C9427150C946801A7
:100080000C94F1140C9468010C9468010000211088
:10009000422063308440A550C660E77008812991F2
:1000A0004AA16BB18CC1ADD1CEE1EFF1311210029A
:1000B00073325222B5529442F772D6623993188342
:1000C0007BB35AA3BDD39CC3FFF3DEE36224433466
:1000D00020040114E664C774A44485546AA54BB592
:1000E00028850995EEE5CFF5ACC58DD5533672263A
:1000F00011163006D776F6669556B4465BB77AA7E2
:1001000019973887DFF7FEE79DD7BCC7C448E55885
:100110008668A7784008611802282338CCC9EDD931
:100120008EE9AFF9488969990AA92BB9F55AD44AD9
:10013000B77A966A711A500A333A122AFDDBDCCB81
:10014000BFFB9EEB799B588B3BBB1AABA66C877CA5
:10015000E44CC55C222C033C600C411CAEED8FFDD1
:10016000ECCDCDDD2AAD0BBD688D499D977EB66E79
:10017000D55EF44E133E322E511E700E9FFFBEEF21
:10018000DDDFFCCF1BBF3AAF599F788F8891A981E3
:10019000CAB1EBA10CD12DC14EF16FE18010A100CD
:1001A000C230E3200450254046706760B9839893BD
:1001B000FBA3DAB33DC31CD37FE35EF3B10290121D
:1001C000F322D2323542145277625672EAB5CBA589
:1001D000A89589856EF54FE52CD50DC5E234C3246D
:1001E000A01481046674476424540544DBA7FAB75D
:1001F0009987B8975FE77EF71DC73CD7D326F236BD
:100200009106B01657667676154634564CD96DC9A8
:100210000EF92FE9C899E9898AB9ABA9445865480C
:1002200006782768C018E1088238A3287DCB5CDBFC
:100230003FEB1EFBF98BD89BBBAB9ABB754A545A5C
:10024000376A167AF10AD01AB32A923A2EFD0FEDC8
:100250006CDD4DCDAABD8BADE89DC98D267C076CAC
:10026000645C454CA23C832CE01CC10C1FEF3EFF9C
:100270005DCF7CDF9BAFBABFD98FF89F176E367EFC
:10028000554E745E932EB23ED10EF01E00081C181F
:10029000141011241FBECFEFD0E1DEBFCDBF11E09F
:1002A000A0E0B1E0E8E9FBE200E00BBF02C007908C
:1002B0000D92A830B107D9F71DE0A8E0B1E001C068
:1002C0001D92A138B107E1F70E94E80E0C94CB15FE
:1002D0000C9400008FB7F894992708958FBF089564
:1002E000813081F0813058F0823019F0813221F074
:1002F000F7CF8EE794E0089581E29AE0089583E4D1
:1003000094E0089589ED99E00895CF93DF93EC018F
:10031000DB01FA014115510519F481E090E00CC0B0
:100320008D919C911197918380834D935C938A81E9
:100330008F5F8A8380E090E0DF91CF910895FC0188
:100340000190F081E02D9F0111C08281861781F01C
:10035000D90107C08D919C911197AE17BF0729F065
:10036000DC011097B9F780E090E0FC01309769F765
:10037000CF010895282F9FB7F894E82FFF27EC545A
:10038000FB4F80818F3F91F480915C0A821781F44A
:100390000DC02093190A06C0E0915C0AFF27EC54B7
:1003A000FB4F208320935C0A20E007C025E005C0B6
:1003B0008091190A8F3F81F7ECCF892F99278FBF42
:1003C000822F992708959FB7F8948091CB098A309E
:1003D00011F020E006C020E08091E104843009F4AF
:1003E00021E0892F99278FBF222349F087E00E94BF
:1003F000BA018FB7F894992710920A0106C08FB7F7
:10040000F894992721E020930A018FBF08952FB710
:10041000F89433278CB95E9A2FBF0895FC016115BB
:10042000710519F481E090E0089580910808909199
:100430000908892B19F085E090E008957093110A5E
:100440006093100AF0930908E09308081092E304FF
:100450001092E20481E08093E4045E9A569A8081CF
:1004600021E030E03093E3042093E2040E9407028D
:1004700080E090E0089580911B018E7F80931B01A6
:100480008EE78093BF0461E070E08FEB94E00E9400
:100490000E02992708951F931FB7F8948091580A68
:1004A000882341F485E00E94BA01882319F481E091
:1004B0008093580A812F99278FBF1F9108957FB786
:1004C000F89462B720913F04309140044091410478
:1004D0005091420406B601FE0FC081B792B7280FB3
:1004E000311D411D511D2F5F3F4F4F4F5F4F290F52
:1004F000311D411D511D04C0260F311D411D511DCF
:10050000872F99278FBFCA01B9010895DF92EF9213
:10051000FF920F931F93CF93DF93EC01EF81F88548
:100520000190F081E02DE080F18002811381EB8168
:10053000FC81D2800E945F0229E0D29EF00111244A
:10054000E356F74F6083718382839383E482F5825D
:100550000683178380858360808783E00E94BA01C9
:10056000DF91CF911F910F91FF90EF90DF90089551
:100570002FB7F89433272FBF0E9470010895EF9290
:100580000F931F93AE2D99E0899FF0011124ED5D2B
:10059000F74F4083518362837383048315832683DB
:1005A0003783A17080858E7F8A2B8260808782E06E
:1005B0000E94BA011F910F91EF900895AF92BF92E0
:1005C000CF92DF92EF92FF920F931F93F82E5A0172
:1005D0006B010E945F02AB01BC0181E0E82E960135
:1005E00085018F2D0E94BF021F910F91FF90EF9008
:1005F000DF90CF90BF90AF900895FC018281681783
:1006000018F0E0E0F0E00BC00190F081E02D3097B1
:1006100021F405C00190F081E02D6150D8F7CF01A1
:100620000895CF93DF93EC01662351F4888199817B
:100630000097C9F0FC0180819181998388830DC066
:1006400061500E94FD02DC01892B69F0ED91FC9163
:100650001197808191818D939C93118210828A8160
:1006600081508A8302C0E0E0F0E0CF01DF91CF91BA
:100670000895E0911108F09112088781823029F4E1
:10068000F093D309E093D2090BC060911008615038
:100690008EE098E00E9411039093D3098093D209D1
:1006A000E091D209F091D30981E087830895802DEC
:1006B000E091170AF091180A858B812DE091170AB5
:1006C000F091180A868B822DE091170AF091180A92
:1006D000878B832DE091170AF091180A808F842D63
:1006E000E091170AF091180A818F852DE091170A81
:1006F000F091180A828F862DE091170AF091180A5E
:10070000838F872DE091170AF091180A848F882D26
:10071000E091170AF091180A858F892DE091170A48
:10072000F091180A868F8A2DE091170AF091180A25
:10073000878F8B2DE091170AF091180A80A38C2DDA
:10074000E091170AF091180A81A38D2DE091170A04
:10075000F091180A82A38E2DE091170AF091180AE1
:1007600083A38F2DE091170AF091180A84A3802F9C
:10077000E091170AF091180A85A3812FE091170ADA
:10078000F091180A86A3822FE091170AF091180AB7
:1007900087A3832FE091170AF091180A80A7842F6E
:1007A000E091170AF091180A81A7852FE091170AA6
:1007B000F091180A82A7862FE091170AF091180A83
:1007C00083A7872FE091170AF091180A84A7882F32
:1007D000E091170AF091180A85A7892FE091170A6E
:1007E000F091180A86A78A2FE091170AF091180A4B
:1007F00087A78B2FE091170AF091180A80AB8C2FF6
:10080000E091170AF091180A81AB8D2FE091170A39
:10081000F091180A82AB8E2FE091170AF091180A16
:1008200083AB8F2FE091170AF091180A84AB8FB732
:10083000E091170AF091180A848B8DB79EB7E0916A
:10084000170AF091180A96838583E091D209F091F6
:10085000D309858196819EBF8DBF84898FBF85898D
:10086000082E8689182E8789282E808D382E818D16
:10087000482E828D582E838D682E848D782E858DFE
:10088000882E868D982E878DA82E80A1B82E81A1C6
:10089000C82E82A1D82E83A1E82E84A1F82E85A18E
:1008A000082F86A1182F87A1282F80A5382F81A572
:1008B000482F82A5582F83A5682F84A5782F85A55A
:1008C000882F86A5982F87A5A82F80A9B82F81A942
:1008D000C82F82A9D82F83A9E82F84A9F82F0895BB
:1008E0009093180A8093170A0E9439032091D20925
:1008F0003091D3098091170A9091180A2817390767
:1009000011F00E9457030895DF92EF92FF920F9328
:100910001F938FB7F894282F3327D22E91B782B721
:1009200046B7981711F041FF02C02FBF6AC08091EF
:1009300013088823E1F10E945F02E090CE09F09055
:10094000CF090091D0091091D109209178043091FC
:10095000790440917A0450917B046E197F09800BD1
:10096000910B621773078407950720F01092130804
:1009700071E01EC02E0D3F1D401F511F80913F048E
:1009800090914004A0914104B0914204281B390B7E
:100990004A0B5B0B273E31054105510540F4822F80
:1009A000223010F070E005C070E082E002C070E01C
:1009B00086EE682F615000B601FCFDCF82B7681744
:1009C00009F46F5F20913F0430914004409141044D
:1009D00050914204DA01C9010196A11DB11D860F93
:1009E000911DA11DB11D82179307A407B50710F42F
:1009F000622F609561BFDFBE772319F081E00E940E
:100A0000BA011F910F91FF90EF90DF900895AFB75B
:100A1000F894BB27E1E0E09313086093CE0970934C
:100A2000CF098093D0099093D10920937804309313
:100A3000790440937A0450937B04AFBF0E948404EE
:100A4000089510927F0410927E0482E080938004C7
:100A500010928204109281048DE394E090938404B8
:100A60008093830410928504109286048FE492E1AF
:100A700090938D0480938C0410928F0410928E04B6
:100A8000109291041092900480E090E0089580917B
:100A9000100890E0882309F491E0992309F451C0EB
:100AA000E0911108F09112088781823009F449C061
:100AB00087B7992783709070892B19F4E5E0F0E0EF
:100AC00013C080B7992787709070892BD1F781B7B1
:100AD00092B7891B8C3030F082B7853F18F4E3E081
:100AE000F0E002C0E2E0F0E087B7887BC1F48091DB
:100AF0007D008B7FA1F46E9912C08AB190919A000B
:100B0000892B807C61F48091740082FD08C0379B42
:100B100003C081E090E005C085E090E002C080E085
:100B200090E025B78E1708F4E82FFF27E457FD4F14
:100B3000E491237E2062E22BE5BF78948895F894B7
:100B4000A6CF08950F931F93E091D209F091D30996
:100B50008781813019F081E090E00DC083E08783C8
:100B60000091D2091091D3090E944705C8010E9443
:100B7000700480E090E01F910F9108951F93DC01B5
:100B80001FB7F894E091D209F091D3098C91882392
:100B900031F481E08C9380858F5F808708C0CD0120
:100BA0000196AF01BC010E9485010E94A205812F20
:100BB00099278FBF80E090E01F9108959FB7F89428
:100BC00060911C0870911D08209188003091890067
:100BD00080917C0082FF06C06F5F7F4F209188006C
:100BE00030918900892F99278FBF88279927CB01BA
:100BF0007727662744275527622B732B842B952B49
:100C000008951092DA091092D90981E08093DB09E6
:100C10001092DD091092DC0985E098E09093DF09DD
:100C20008093DE091092E0091092E1098FE995E1C5
:100C30009093E8098093E7091092EA091092E90974
:100C40001092EC091092EB0980E090E00895109268
:100C500044041092430410924504109247041092E9
:100C600046048BE79DE090934904809348041092DA
:100C70004A0410924B048CE995E1909352048093BE
:100C8000510410925404109253041092560410927E
:100C9000550480E090E00895FC0111826083128287
:100CA00014821382339612823397178216823696F5
:100CB00012820895E091D209F091D309858196813D
:100CC0009EBF8DBF84898FBF8589082E8689182E87
:100CD0008789282E808D382E818D482E828D582E22
:100CE000838D682E848D782E858D882E868D982E06
:100CF000878DA82E80A1B82E81A1C82E82A1D82EC2
:100D000083A1E82E84A1F82E85A1082F86A1182F93
:100D100087A1282F80A5382F81A5482F82A5582F7D
:100D200083A5682F84A5782F85A5882F86A5982F61
:100D300087A5A82F80A9B82F81A9C82F82A9D82F4D
:100D400083A9E82F84A9F82F0895ECE8F0E069273B
:100D5000660FF11DE60FF11DC895982F802D319675
:100D6000C89590250895982F80911601882389F5BC
:100D7000992379F531E03093160180910001809339
:100D8000170120910B01822F81708093B304809111
:100D900005019091060190931901809318018091AB
:100DA0000C0180931A0132273170267EE32FFF2732
:100DB000EE0FFF1FEF5FFE4F808191819093060140
:100DC00080930501232B20930B018AE00E94BA0136
:100DD000089580910B0180FF02C08B7F01C08D7F41
:100DE00080930B0108950F931F93082F162F809166
:100DF000E1048130D9F0813038F0823009F44AC002
:100E0000833009F00EC159C0002309F43EC110928D
:100E1000D5091092D4091092CD091092120A10929D
:100E2000E50410921F0810921E081FC1002309F04C
:100E30002CC180911E0890911F080E94A5069093D6
:100E40001F0880931E0882E08093E1041093120A29
:100E5000143409F0E6C00BC18695869503C08091D5
:100E60000B018695817009F0DCC080910B019923FC
:100E700011F0846001C0826080930B0180910B01AE
:100E8000877E886080930B0110920C018FEF809316
:100E90000001FBC0002309F0C4C06093E504809109
:100EA0001E0890911F080E94A50690931F0880932A
:100EB0001E0883E08093E104E8C08091CD098F3F54
:100EC00009F4AFC0002309F447C0823008F4A9C078
:100ED000E091D409EE2309F4D1C04E2F4150E42F04
:100EE000FF27EC52F64F82819927382F222744237F
:100EF00011F4E2E002C0E42FE150FF27EC52F64F7C
:100F000082819927282B392B80911E0890911F08E8
:100F10002817390709F085C080E00E94B306309198
:100F2000E5048091140820911508982F9F5F963052
:100F300008F090E0921709F474C0E82FFF27EC5EE8
:100F4000F74F32838F5F80931408863010F0109231
:100F500014080E944B0265C0823008F44EC0E09134
:100F6000D509FF27EC52F64F8281482F5527342FA1
:100F700020910B01822F86958695869583709927FF
:100F80008130910519F00297F9F40EC0277E206197
:100F900020930B01442311F485E001C080E080938D
:100FA0000C013093000110C080910C01843360F477
:100FB000E0910501F0910601E80FF11D4083809159
:100FC0000C018F5F80930C018091D509E82FFF27DA
:100FD000EC52F64F62818F5F8093D509833010F019
:100FE0001092D509772780911E0890911F080E94C2
:100FF000A50690931F0880931E088091D409E82FBE
:10100000FF27EC52F64F12838F5F8093D409833011
:1010100010F01092D4098091CD098F5F8093CD0993
:1010200034C01092D5091092D4091092E1041092A4
:10103000CD091092120A1092E50410921F08109226
:101040001E0880911B018D7F80931B0181E00E940F
:10105000B30680910A01882331F084E08093E10493
:101060000E94E30112C0002381F081E023CF809130
:101070000B01982F917080FDEFCEF1CE8091D809B1
:101080009927382F222742E036CF1F910F910895DC
:10109000982F8D57823068F480911B018160809376
:1010A0001B0180E289278093CC098DE78093BF04E0
:1010B00002C09093BF0461E070E08FEB94E00E9467
:1010C0000E02992708950895E091D209F091D3096D
:1010D0008781813019F081E090E0089582E0878374
:1010E0004091D2095091D309809111089091120832
:1010F0004817590729F06EE078E0CB010E9485017E
:101100008091D2099091D3090E94700480E090E010
:1011100008951F93182F0E947001FC01878183306E
:1011200019F081E090E014C082E08783809111087B
:1011300090911208E817F90749F0812F0E94700179
:10114000AC016EE078E0CB010E94850180E090E088
:101150001F9108951F93CF93DF931FB7F894709357
:10116000090160930801FB014283C0910801D091FD
:101170000901E091D209F091D309FC83EB83738BD1
:10118000628B38872F83009741F09E838D8384E0A4
:101190000E94BA0181E20E9489080E94A205212FC3
:1011A00033272FBF9927DF91CF911F91089581E2B7
:1011B0000E948908882349F4E091D209F091D3096B
:1011C0008281813211F00E94640808951F920F926B
:1011D0000FB60F9211241F932F933F934F935F935A
:1011E0006F937F938F939F93AF93BF93EF93FF93EF
:1011F0005F9B3DC06CB1E0912008F09121083097D1
:10120000F9F08091560A9091570AE80FF91F608310
:1012100001969093570A8093560A20917F0D309142
:10122000800D8217930718F1109221081092200860
:101230008091CA098330D9F057981092CA0917C013
:101240006E3719F460E081E010C080911B016D37AA
:1012500021F4826080931B010AC081FF05C08D7F4D
:1012600080931B0180E2682780E00E94F3061FB78D
:10127000F8948091190A20E030E08F3F11F021E0CE
:1012800030E0213011F40E94D708812F99278FBFB9
:10129000FF91EF91BF91AF919F918F917F916F914E
:1012A0005F914F913F912F911F910F900FBE0F9023
:1012B0001F9018958FB7F89499270091D209109133
:1012C000D3098FBF7894E801EE85FF8588899989D5
:1012D0000995CFB6F894F801178280911C0A8150C5
:1012E00080931C0AAA24BB24EE24FF24E8018985EC
:1012F000882329F4E8E0F0E0EE0EFF1E16C0E701B7
:10130000DD24F801818580FF03C08C2F0E948908AD
:10131000F8018185869581872196D394F8E0DF16C0
:1013200081F788E090E0E80EF91E0894A11CB11C3A
:101330000F5F1F4F95E0A916B104C1F680911C0AFA
:10134000813029F480912B088D7F80932B080E9497
:1013500047050E9439030E945A068C2D99278FBF9A
:101360009F92AF92BF92CF92DF92EF92FF920F9334
:101370001F93CF93DF935B016C01C0E0D0E0EDE9F8
:10138000F8E09C2E608561FF48C020813181428158
:101390005381E480F58006811781D601C501821B47
:1013A000930BA40BB50B8E159F05A007B107A8F1F1
:1013B00060FF03C06D7F608708C02E0D3F1D401F7A
:1013C000511F2083318342835383892D0E94B802A9
:1013D000EC01EA89FB890780F085E02D8481853066
:1013E00051F481E08483EA89FB890380F481E02D54
:1013F00082810E948908892D0E94B802EC01EA8945
:10140000FB89858196818658924069F40380F48136
:10141000E02D82810E94890806C021963996C1324A
:10142000D10509F0AECF83E00E94BA01DF91CF91E0
:101430001F910F91FF90EF90DF90CF90BF90AF90F2
:101440009F900895AF92BF92CF92DF92EF92FF925A
:101450000F931F935B016C0160912B0861FF1FC00C
:1014600020912308309124084091250850912608A6
:10147000E0902708F09028080091290810912A0888
:10148000D601C501821B930BA40BB50B8E159F05CE
:10149000A007B10720F0E3E2F8E090E020C0ECE222
:1014A000F8E06091340861FF48C020912C08309129
:1014B0002D0840912E0850912F08E0903008F090B0
:1014C00031080091320810913308A21AB30AC40AF5
:1014D000D50AAE14BF04C006D10678F191E060FFD2
:1014E00004C080858D7F808708C02E0D3F1D401F62
:1014F000511F2083318342835383992319F0913004
:10150000E1F417C045E050E060E070E080E00E9448
:10151000DE021FB7F8948091100890E0882309F448
:1015200091E0992311F40E946408812F99278FBFBD
:1015300004C00E945F020E94B00982E00E94BA01CA
:101540001F910F91FF90EF90DF90CF90BF90AF90E1
:101550000895CF93DF93FC01C781D08582818823D2
:1015600029F486E00E94BA01188208C081E08883CD
:101570000380F481E02D82810E948908DF91CF9160
:1015800008956F927F928F929F92AF92BF92CF9267
:10159000DF92EF92FF920F931F93CF93DF938530EB
:1015A00009F449C1863090F4823009F46BC083306D
:1015B00030F48823F1F0813009F0C1C230C08330AB
:1015C00009F4E0C0843009F0BAC22BC1883009F4B4
:1015D00018C2893038F4863009F405C2873009F022
:1015E000AEC20BC2893009F418C28A3009F0A7C212
:1015F00046C28FB7F894992720911C0A8FBF2230DA
:1016000030F480912B088D7F80932B0898C245E0A1
:1016100050E060E070E080E00E94DE0290C28091C5
:10162000CE04882361F52091130A3091140A409169
:10163000150A5091160AEFB7F894FF276091CE096A
:101640007091CF098091D0099091D109E0907804F0
:10165000F090790400917A0410917B046E0D7F1D47
:10166000801F911FEFBF2093130A3093140A4093F9
:10167000150A5093160A1092CE040E9407050E9484
:101680005F026DC00E945F025B016C018FB7F8942E
:101690009927109213088FBF80912B0881FF25C0D6
:1016A0008091230890912408A0912508B0912608E4
:1016B000A6019501281B390B4A0B5B0BE09027080C
:1016C000F09028080091290810912A08E21AF30ADC
:1016D000040B150B3FEFE3163FEFF3063FEF030755
:1016E0003FE7130711F061E009C0EFEFEE2EEFEFD7
:1016F000FE2EEFEF0E2FEFE71E2F60E080913408F3
:1017000081FF21C080912C0890912D08A0912E0876
:10171000B0912F08A6019501281B390B4A0B5B0BD2
:10172000DA01C90120913008309131084091320826
:1017300050913308281B390B4A0B5B0B2E153F05C4
:10174000400751072CF0662309F4F9C1A80197015D
:1017500012161306140615062CF0C601B5010E94D8
:10176000220AEDC12093130A3093140A4093150AFC
:101770005093160A81E08093CE04C601B5010E9401
:101780000705DDC10E945F025B016C018091340896
:101790008D7F809334087FEF672E7FEF772E7FEF6A
:1017A000872E7FE7972E60E0EDE9F8E0808581FFE6
:1017B0001CC080819181A281B381A6019501281B63
:1017C000390B4A0B5B0BDA01C90124813581468153
:1017D0005781281B390B4A0B5B0B2615370548052B
:1017E00059051CF439014A0161E0399639E0E63CBB
:1017F000F307E1F6662309F4A2C1161417041804CE
:1018000019042CF0C601B5010E94B00998C161E02D
:10181000E62E94018301B601A50181E00E94BF027A
:101820008EC1E0910801F091090125813681CF0137
:10183000F901099584C18FB7F8941092580A209144
:10184000CB0940E0283009F441E030E0293009F4C8
:1018500031E0442311F4332351F01092CB09E0918D
:101860002208FF27EE0FFF1FE65FF74F1082992730
:101870008FBF442311F4332319F180911D0A8F5F28
:1018800080931D0A809107088334A1F49FB7F894D0
:101890002091150880911408821741F0822F8F5FE4
:1018A00080931508863010F010921508892F99271B
:1018B0008FBF0AC0A0E0442309F4A1E071E006C094
:1018C000222311F010E069C070E0A0E08FB7F89417
:1018D000992720910A018FBF222341F08FB7F894F6
:1018E00099272AE02093CB098FBF43C08FB7F89484
:1018F000992760910A0840910C088FBF8FB7F89420
:10190000282F332750E090911408809115089817DC
:1019100009F451E02FBF552349F5662339F55FB728
:10192000F89482E080930A088FB7F894282F332721
:1019300040E09091140880911508981709F441E04F
:101940002FBF442311F080E006C0E0911508FF2767
:10195000EC5EF74F828180930B08852F99278FBF0C
:1019600083E480930708109222080BC04150423054
:1019700010F010E007C085E48093070881E08093B1
:10198000220811E0772349F08FB7F8949927A093A4
:1019900013018FBF89E00E94BA018091CB098A3080
:1019A00019F40E94E301CBC0112309F4C8C02FB77A
:1019B000F894332710927E0D10927D0D1092E6045C
:1019C00081E08093CB092FBF0E943B02882309F45A
:1019D000B6C08FB7F894992729E02093CB098FBF21
:1019E0000E944B02ACC0569857981092CA091092A8
:1019F000E404539A549A579A06C088E00E94BA01A8
:101A00009EC05398549860E08EE19AE00E949F0136
:101A1000FC01A781B0851C922BC01092100110927E
:101A20000F018FB7F8949927209113018FBF8091F0
:101A30001401811123E0E0910D01F0910E018091DC
:101A40001501882309F07BC09385E0911D01F09179
:101A50001E01309709F473C08281891709F06FC0A5
:101A60000780F085E02D2583E0911D01F0911E0196
:101A70000380F481E02D82810E94890860C08FB7C5
:101A8000F8949927209117010091180110911901DC
:101A9000F090B3048FBF2223D9F5E8016B858091C4
:101AA0001C01813011F46FEF01C0772789E59AE0BE
:101AB0000E949F01DC01009759F1FC01C781D0858C
:101AC0008C81853029F583819481FC01828199275D
:101AD000FC0123E0EE0FFF1F2A95E1F7E80FF91F45
:101AE000EB55F74F80818D7F80838A819B81A80190
:101AF00024E3FA010190AF01FC010192CF012150D2
:101B0000C1F71C82ED01EB81FC8182810E94890872
:101B10008FB7F894EF2DFF27EE0FFF1FEF5FFE4FFB
:101B20001183008320910B01FF2011F02B7F01C056
:101B30002D7F20930B011092160199278FBFDF9103
:101B4000CF911F910F91FF90EF90DF90CF90BF90BA
:101B5000AF909F908F907F906F9008958091190A19
:101B60008F3FF9F09091190AE091190AFF27EC5480
:101B7000FB4F80818093190A8091190A8F3F11F4DD
:101B800080935C0A292F3327F901EC54FB4F8FEF28
:101B900080832F3F31F0822F0E94C10A81E090E0C4
:101BA000089580E090E00895CF93DF93DC01FC017D
:101BB000C781D0854C81888199812281EA81FB810E
:101BC0008683892F992785832387418780910F01F9
:101BD00090911001892B89F52FB7F894332785E070
:101BE0008093120110921301F0930E01E0930D0106
:101BF00082E090E09093100180930F011092150104
:101C000010921401445F409311012FBF9FB7F894C5
:101C100080910C08882311F020E006C081E08093B9
:101C20000C0810920D0821E0892F99278FBF2223DD
:101C300071F00E944B021D8211C085E090E08D83FF
:101C4000ED01EB81FC8182810E94890807C010921E
:101C5000100110920F0181E090E0F1CFDF91CF9160
:101C60000895FF920F931F93CF93DF93182F8FB791
:101C7000F894F82E113009F475C0113008F494C0AE
:101C8000123009F47AC0113209F482C07093110045
:101C90006093100010920800109201001092000052
:101CA000113041F0113018F0123039F07BC00E9431
:101CB000270605C00E94010602C00E942105082FC8
:101CC000812F0E947001DC01FC011782E091D20992
:101CD000F091D30983819481FD01948383831996C4
:101CE00085E0FD0111928A95E9F719972DB73EB766
:101CF000FD01858196819EBF8DBF8AE599E08F9316
:101D00009F938DB79EB7FD01968385833EBF2DBF00
:101D10008FB7FD01848B002309F051C0812F0E94F1
:101D20007001EC018F81882319F081E090E018C0E8
:101D300080911C0A8F5F80931C0A823039F445E041
:101D400050E060E070E080E00E94DE0282E08F837D
:101D5000AE016EE078E0CB010E94850180E090E06A
:101D6000FFBE30C07093EA096093E9091092E1095F
:101D70001092DA091092D9099DCF70938F04609365
:101D80008E041092860410927F0410927E0495CFE8
:101D90007093320A6093310A1092290A1092220A33
:101DA0001092210A01E08CCF709354046093530485
:101DB00010924B04109244041092430478CFFFBE5B
:101DC00081E090E0DF91CF911F910F91FF900895F6
:101DD000FF920F931F938FB7F89410921C0A81E221
:101DE0000E947001FC01909312088093110881E217
:101DF000828310920F0810920E0810921008E09142
:101E00001108F0911208F093D309E093D20911E080
:101E10001783E091D209F091D30914821382FFB69F
:101E2000F8944BE050E06FEF70E084EB94E00E9498
:101E3000C4158FEF8093190A80935C0A1EBD88E059
:101E400080BF83E083BF8CB59DB54AE72CB53DB517
:101E50002817390708F44150442311F0C901F6CF7F
:101E600092B782B78917E9F32CB53DB592B782B71F
:101E70008917E9F38CB59DB5821B930B409665E0FD
:101E8000969587956A95E1F790931B0A80931A0AB5
:101E900013BE83B78EBD8EB580BF12BE1DBC1CBCE9
:101EA0008FEF86BF86B780937C0080B799278770B5
:101EB0009070892BD1F7D29AD19AD09ADA9AD99A7E
:101EC000D89A15BA8FEF84BBD498DC981092890009
:101ED0001092880080917D00846080937D008091C5
:101EE0008A00887F826080938A0080E285BF0E949A
:101EF000AE0D8823E1F71092C6091092C80910921E
:101F0000C7091092C90910925A0A1092590A1092E0
:101F10005B0A10921C0110921F0A10921E0A109266
:101F2000200A12E006E060911A0A70911B0A8827C5
:101F300099275CE0660F771F881F991F5A95D1F784
:101F400020E031EE40E050E00E94A21521503040E8
:101F500029B9832F9927809390001BB9009395008E
:101F60001AB8209399008093980010939B000093D7
:101F70009D0010929A0084E490E090930F0A809361
:101F80000E0A10920A0810920C081092CB091092B7
:101F9000E6041092070810921D0A10927E0D10920E
:101FA0007D0D1092580A109222081092D5091092B5
:101FB000D4091092E1041092CD091092120A1092E5
:101FC000E50410921F0810921E0810921508109236
:101FD00014080E9421050E9401060E94270680B76E
:101FE000886080BF8BE083BF86EE81BF87B7826049
:101FF00087BF0E9484040E94AE0D8823E1F78F2DD5
:1020000099278FBF78941092CD040E94DE056093CB
:10201000C0047093C1048093C2049093C30460E031
:102020008FEC94E00E944C0661E084EC94E00E9406
:102030004C0660E088ED94E00E944C0660E070E0A1
:1020400080E00E94310E60E070E081E00E94310E7D
:1020500060E070E082E00E94310E8FB7F894082FA4
:10206000112702C00E94A2058091190A8F3FD1F367
:102070009091190AE091190AFF27EC54FB4F8081D7
:102080008093190A8091190A8F3F11F480935C0A9A
:10209000292F3327F901EC54FB4F8FEF80832F3F1B
:1020A00009F30FBF822F0E94C10AD7CFCF93DF93CE
:1020B000EC0188818130B1F4E091D209F091D3092B
:1020C000808581508087FE01319662816150CF0109
:1020D0000E941103FC01892B21F082810E94890852
:1020E00001C0188280E090E0DF91CF910895FF92C7
:1020F0000F931F93CF93DF93EC01FFB6F8948C01FD
:102100000E5F1F4FC8010E94BE058981882371F0B0
:10211000FE01369662816150CF010E941103FC01DD
:10212000892B39F082810E94890803C088818F5FE2
:102130008883C8010E9456108F2D99278FBF80E099
:1021400090E0DF91CF911F910F91FF900895CF9272
:10215000DF92EF92FF920F931F93CF93DF93CDB750
:10216000DEB72F970FB6F894DEBF0FBECDBFC82ED7
:102170008B017A01D22E86EC99E00E94BE058091F7
:102180001D0190911E01892BC9F4BE01695F7F4F2B
:1021900070931E0160931D011A830983FC82EB82F8
:1021A000DD829E012F5F3F4F4C2D84ED9DE00E940C
:1021B000AA0810921E0110921D0102C085E08E83B4
:1021C0000FB7F894112786EC99E00E9456108E8183
:1021D0000FBF99272F960FB6F894DEBF0FBECDBF65
:1021E000DF91CF911F910F91FF90EF90DF90CF90F3
:1021F0000895FF920F931F93CF93DF93EC01FFB6E7
:10220000F8948C010E5F1F4FC8010E94BE058981A2
:102210008F5F898314C0CE0106964091D2095091F8
:10222000D309BC010E948501C8010E9456100E947A
:10223000A205C8010E94BE0588818F5F88839881AE
:10224000992349F389818150898391509883C801EA
:102250000E9456108F2D99278FBF80E090E0DF916C
:10226000CF911F910F91FF9008950F931F93CF93DC
:10227000DF93C1E0D0E000E010E084EC94E00E9445
:10228000F91020E030E0CE01880F991FC80FD91F48
:102290002F5F3F4F24363105B1F7C093CD048FEC4B
:1022A00094E00E9477100F5F1F4F8CE900341807ED
:1022B00021F7DF91CF911F910F910895CF93DF9375
:1022C000C0E0D0E08FEC94E00E94F91084EC94E040
:1022D0000E94771021968CE9C034D80799F788EDD1
:1022E00094E00E947710DF91CF910895FF920F93B1
:1022F0001F93CF93DF93CDB7DEB7EE970FB6F89469
:10230000DEBF0FBECDBF88ED94E00E94F9100E94A1
:10231000DE052091C0043091C1044091C204509167
:10232000C304621B730B840B950B6093C004709302
:10233000C1048093C2049093C3048FB7F894082F0C
:102340001127F02E60E08EE19AE00E949F01892B18
:1023500011F00FBFF2CF1B821A828E010E5F1F4F4A
:102360006091200A8091200A861790F0662329F454
:10237000A8016EE17AE0CB0109C061508EE19AE0DC
:102380000E94FD02A801BC018EE19AE00E94850135
:10239000FFBE9E012F5F3F4F40E0BE016E5F7F4F4B
:1023A00089EA9AE00E94AA083FB7F894E0911E0AD1
:1023B000F0911F0A309719F1E017F10769F4808155
:1023C000918190931F0A80931E0A1182108212C07D
:1023D000A017B10731F0FD01A081B1811097C1F7BD
:1023E0000EC0309761F08D919C91119791838083FD
:1023F0001D921C928091200A81508093200A29818D
:10240000832F99278FBF222309F097CFCE014796BC
:1024100090937D0480937C048091C0049091C104CA
:10242000A091C204B091C3048F8B988FA98FBA8FEB
:1024300024E0AE01455F5F4F6FEF7FEF84EE0E94B7
:10244000A7108823A9F7E0917C04F0917D04809186
:10245000CD049927AA27BB2780839183A283B383C6
:1024600024E0AE01455F5F4F6FEF7FEF84EE0E9487
:10247000A7108823A9F78FB7F89499272BB332E0D8
:1024800023272BBB8FBFEE960FB6F894DEBF0FBE8F
:10249000CDBFDF91CF911F910F91FF9008950E94C2
:1024A0007611089578941F920F920FB60F9211240F
:1024B0001F932F933F934F935F936F937F938F93CC
:1024C0009F93AF93BF93EF93FF931FB7F8948091BF
:1024D000190A20E030E08F3F11F021E030E0213098
:1024E00011F40E94D708812F99278FBFFF91EF9198
:1024F000BF91AF919F918F917F916F915F914F911C
:102500003F912F911F910F900FBE0F901F90189524
:102510001F920F920FB60F9211241F932F933F9388
:102520004F935F936F937F938F939F93AF93BF93DB
:10253000EF93FF9383B783BF00B600FCFDCF81B755
:1025400099270196AA27BB2720913F043091400488
:102550004091410450914204280F391F4A1F5B1FCC
:1025600020933F043093400440934104509342042D
:1025700078940E9484041FB7F8948091190A20E08F
:1025800030E08F3F11F021E030E0213011F40E9463
:10259000D708812F99278FBFFF91EF91BF91AF91FE
:1025A0009F918F917F916F915F914F913F912F916B
:1025B0001F910F900FBE0F901F90189578941F9247
:1025C0000F920FB60F921124FF920F931F932F9328
:1025D0003F934F935F936F937F938F939F93AF93AB
:1025E000BF93CF93DF93EF93FF932091E204309159
:1025F000E3048091100A9091110A2817390780F49A
:10260000E0910808F0910908E20FF31F80812F5F25
:102610003F4F3093E3042093E2040E940702D0C0AE
:1026200010920908109208081092E40456988091BC
:102630001B0180FF0EC08E7F80931B018091CC090F
:102640008093BF0461E070E08FEB94E00E940E0283
:10265000B7C08091CB09843009F494C0853040F430
:10266000823021F18330B8F5813009F0A4C00DC06B
:10267000863009F495C0863008F48BC0873009F4A1
:1026800096C0883009F097C099C0809107080E94D1
:102690004808182F83E08093CB0960910708809148
:1026A0007D0D90917E0D0E94A50610C080911D0A9F
:1026B0000E944808182F83E08093CB0960911D0A7F
:1026C00080917D0D90917E0D0E94A50690937E0DC8
:1026D00080937D0D6EC0FFB6F894E0912208FF272D
:1026E000EE0FFF1FE55FF74F80810E944808082F1B
:1026F00010912208C12FDD27FE01EE0FFF1FE55FBD
:10270000F74F608180917D0D90917E0D0E94A5060E
:1027100090937E0D80937D0D2091E6042F5F209392
:10272000E604113039F580911201E0910D01F0912C
:102730000E01E80FF11DE0818F5F809312019091EF
:102740001101981730F482E080930C0840E050E0CB
:1027500002C04E2F5527DE01AA0FBB1FFD01E65F09
:10276000F74F8081823031F02F3F21F0A55FB74FC6
:102770004C9303C084E08093CB09102F8F2D9927B1
:102780008FBF17C080917D0D0E944808182F85E0EB
:102790000BC080917E0D0E944808182F86E004C06F
:1027A0000E943B02182F87E08093CB0902C088E08B
:1027B00003C0112329F089E08093CB090E944B02CA
:1027C0001FB7F8948091190A20E030E08F3F11F094
:1027D00021E030E0213011F40E94D708812F9927A1
:1027E0008FBFFF91EF91DF91CF91BF91AF919F91FB
:1027F0008F917F916F915F914F913F912F911F9199
:102800000F91FF900F900FBE0F901F901895789426
:102810001F920F920FB60F9211241F932F933F9385
:102820004F935F936F937F938F939F93AF93BF93D8
:10283000EF93FF938FB7F894992720911C0830915C
:102840001D082F5F3F4F30931D0820931C088FBF3A
:102850001FB7F8948091190A20E030E08F3F11F003
:1028600021E030E0213011F40E94D708812F992710
:102870008FBFFF91EF91BF91AF919F918F917F910A
:102880006F915F914F913F912F911F910F900FBECC
:102890000F901F90189578941F920F920FB60F9279
:1028A00011241F932F933F934F935F936F937F93C5
:1028B0008F939F93AF93BF93EF93FF938091880083
:1028C000909189001FB7F8948091190A20E030E0B8
:1028D0008F3F11F021E030E0213011F40E94D70841
:1028E000812F99278FBFFF91EF91BF91AF919F915A
:1028F0008F917F916F915F914F913F912F911F9198
:102900000F900FBE0F901F90189578941F920F9202
:102910000FB60F9211241F932F933F934F935F9302
:102920006F937F938F939F93AF93BF93EF93FF9397
:102930001FB7F8948091190A20E030E08F3F11F022
:1029400021E030E0213011F40E94D708812F99272F
:102950008FBFFF91EF91BF91AF919F918F917F9129
:102960006F915F914F913F912F911F910F900FBEEB
:102970000F901F90189578941F920F920FB60F9298
:1029800011241F932F933F934F935F936F937F93E4
:102990008F939F93AF93BF93EF93FF931FB7F894D9
:1029A0008091190A20E030E08F3F11F021E030E003
:1029B000213011F40E94D708812F99278FBFFF91F2
:1029C000EF91BF91AF919F918F917F916F915F91A7
:1029D0004F913F912F911F910F900FBE0F901F901D
:1029E000189578941F920F920FB60F9211241F938F
:1029F0002F933F934F935F936F937F938F939F9307
:102A0000AF93BF93EF93FF931FB7F8948091190A88
:102A100020E030E08F3F11F021E030E0213011F470
:102A20000E94D708812F99278FBFFF91EF91BF9107
:102A3000AF919F918F917F916F915F914F913F9156
:102A40002F911F910F900FBE0F901F9018951F92FE
:102A50000F920FB60F9211241F932F933F934F9312
:102A60005F936F937F938F939F93AF93BF93EF93F6
:102A7000FF9380919B0087FF02C080919C001FB74D
:102A8000F8948091190A20E030E08F3F11F021E0A6
:102A900030E0213011F40E94D708812F99278FBF91
:102AA000FF91EF91BF91AF919F918F917F916F9126
:102AB0005F914F913F912F911F910F900FBE0F90FB
:102AC0001F9018951F920F920FB60F9211241F930B
:102AD0002F933F934F935F936F937F938F939F9326
:102AE000AF93BF93EF93FF9383B783BF00B600FC10
:102AF000FDCF1FB7F8948091190A20E030E08F3F96
:102B000011F021E030E0213011F40E94D708812F2C
:102B100099278FBFFF91EF91BF91AF919F918F91B7
:102B20007F916F915F914F913F912F911F910F90E6
:102B30000FBE0F901F9018950E94351108950E94A6
:102B40005E110895A1E21A2EAA1BBB1BFD010DC048
:102B5000AA1FBB1FEE1FFF1FA217B307E407F5074D
:102B600020F0A21BB30BE40BF50B661F771F881F29
:102B7000991F1A9469F760957095809590959B01BF
:102B8000AC01BD01CF010895DC0101C06D9341503E
:082B90005040E0F70895FFCF6B
:082B9800FF350869083508004B
:00000001FF
